:020000040800F2
:10000000FF1F0020C5230008492500084B250008D4
:1000100000000000000000000000000000000000E0
:100020000000000000000000000000004D25000856
:1000300000000000000000004F25000851250008C6
:1000400015240008000000001524000815240008ED
:10005000152400081524000815240008152400089C
:1000600000000000152400081524000815240008CD
:1000700015240008152400081524000800000000BD
:100080005925000815240008000000001524000868
:10009000152400081524000815240008152400085C
:1000A000152400081524000815240008152400084C
:1000B00015240008000000000000000000000000FF
:1000C00010B5064C2378002B07D1054B002B02D02E
:1000D000044800E000BF0123237010BD700400201D
:1000E00000000000082A000808B5084B002B03D0C8
:1000F0000748084900E000BF07480368002B00D10B
:1001000008BD064B002BFBD09847F9E70000000024
:10011000082A000874040020700400200000000079
:1001200002B4714649084900095C49008E4402BC8A
:100130007047C046002243088B4274D303098B42A8
:100140005FD3030A8B4244D3030B8B4228D3030CA7
:100150008B420DD3FF22090212BA030C8B4202D349
:100160001212090265D0030B8B4219D300E0090A71
:10017000C30B8B4201D3CB03C01A5241830B8B427A
:1001800001D38B03C01A5241430B8B4201D34B0363
:10019000C01A5241030B8B4201D30B03C01A5241C8
:1001A000C30A8B4201D3CB02C01A5241830A8B424D
:1001B00001D38B02C01A5241430A8B4201D34B0236
:1001C000C01A5241030A8B4201D30B02C01A52419A
:1001D000CDD2C3098B4201D3CB01C01A524183094E
:1001E0008B4201D38B01C01A524143098B4201D388
:1001F0004B01C01A524103098B4201D30B01C01AB3
:100200005241C3088B4201D3CB00C01A524183082C
:100210008B4201D38B00C01A524143088B4201D359
:100220004B00C01A5241411A00D2014652411046B9
:100230007047FFE701B5002000F00CF802BDC04692
:100240000029F7D003B5FFF775FF0EBC4243891AAA
:100250001847C0467047C046F0B55F4656464D4603
:100260004446F0B445024600C40F83B00F1C6D0A2B
:10027000360EA34645D0FF2E25D080231B041D43F8
:1002800000239A46ED007F3E01937B025B0A98466D
:100290007800FB0F000E994640D0FF2838D080230D
:1002A00042461B041343DB00984600237F384A462E
:1002B000019F30186240411C1F430F2F69D87D4EAB
:1002C000BF00F659B746002D45D108230193063BE0
:1002D0009A46DAE793465346022B2FD15B46012418
:1002E00000251C40FF236D02DB056D0AE4071D435A
:1002F0002543281C03B03CBC90469946A246AB4619
:10030000F0BD002D2CD104230193033B9A46BCE79A
:1003100043465A4253410322D31AC8E742460123B7
:10032000002AC4D0404600F00BFE4246431F9A40CC
:1003300076235B42181A90460023B8E7032B00D1BE
:10034000ADE0012B00D08CE05B4654461C40E4B28B
:1003500000230025C7E70C230193093B9A4694E745
:10036000281C00F0EDFD7626431F9D4000237642B9
:10037000361A01939A4688E780250024ED03FF236F
:10038000B1E74546CB469A46A5E7454693469A4689
:10039000A1E743462C041B0C9C46230C4446260430
:1003A0001C1C360C2F0C7443351C66467D4373436E
:1003B0007743EB18260C9E19B54203D980235B02C4
:1003C0009C46674424043304240C1B199D016C1EB5
:1003D000A5419B0E360C2B43BD19AD011D432B01CE
:1003E00004D5012368081D400543081C031C7F3306
:1003F000002B2CDD690704D00F212940042900D0EF
:100400000435290103D52C4B1D40031C8033FE2BE2
:1004100017DD0124FF231440002564E78020C0037A
:10042000054209D04346034206D1454605436D02C5
:100430006D0A4C46FF2356E705436D026D0AFF2304
:1004400051E70124AD016D0ADBB214404BE77E2376
:100450005B421B1A1B2B07DD0124002314400025DF
:1004600041E7081C5A46C1E79E30291C8540D94007
:10047000681E85410D436B0704D00F232B40042BCE
:1004800000D004356B0104D501240123144000255C
:1004900029E70124AD016D0A1440002323E78023DE
:1004A000DB031D4301245B466D0223401C1C6D0AC7
:1004B000FF2318E7542A0008FFFFFFF7F8B54A00AA
:1004C000430244004D02C00F240E061C9B09120E6D
:1004D000C90FAD09FF2A00D175E001277940884294
:1004E00050D0A01A002800DC8FE0002A1ED1002D79
:1004F00000D075E05A0704D00F221A40042A00D019
:10050000043380220120D2041A403040002A32D025
:100510000134FF2C00D184E09B015B0AE4B25B0252
:10052000E4055B0A2343C0071843F8BDFF2CE1D064
:100530008022D20415431B287ADD01255B1B5A015A
:100540005DD59B019F09381C00F0FAFC05388740F7
:10055000844269DC001B1F243A1C431C201ADA4029
:100560008740131C7C1EA74100243B43C2E7131E97
:1005700045D100230020DB08FF2C28D05B025B0A5A
:10058000E4B2CCE7A11A00295BDD002A2ED0FF2CB3
:10059000B0D08022D20415431B2974DC2F1C2022EA
:1005A000CF40511A8D40691E8D413D435B195A0160
:1005B00025D50134FF2C74D001217E4A1940134007
:1005C0005B080B4396E7002D00D088E785E7002BFA
:1005D00027D08022D20313435B025B0AFF249EE7ED
:1005E00001380028AAD0FF2CA5D183E7002D00D127
:1005F00080E701390029D9D0FF2CCDD17AE75A07FD
:1006000000D079E701203040B5E7002825D1621CF1
:10061000D2B2012A55DD5F1B7A012DD5EF1A0E1CCF
:1006200091E7FF2400237AE7624B241A3B4061E7FD
:10063000291C2022C140101A8540681E85410D43A7
:100640007CE7002946D1621CD1B201292BDDFF2AAB
:1006500026D0EB185B08141C4CE7002C15D0FF2AA1
:100660001AD08024E404404223431B284DDD01239B
:10067000EB1A141C0E1C62E7002F00D063E7002366
:100680000020002477E7012590E7002B39D0C043F4
:100690000028EDD0FF2AE8D12B1CFF240E1C29E7EF
:1006A000FF24002367E7002C5AD1002B7FD0002DB8
:1006B00000D11FE75B195A01A1D53E4A013413400E
:1006C00018E7002C15D1002B2FD1002D5ED02B1C4C
:1006D0000E1C0FE7002C21D1002B54D0C943002958
:1006E00004D0FF2A4CD01B2958DD01235B19141CB0
:1006F0005DE7002B23D1002D4BD02B1C0E1CFF24BB
:10070000F8E62B1C141C0E1CF4E61E1C2024C6400C
:10071000201A8340581E83413343A9E7FF2A2FD074
:100720008024E40449422343DDE7002D00D1E1E6C3
:100730005A1B500100D41AE7EB1A0E1CDAE6FF240C
:10074000002D00D1D6E68022DB08D203134204D06C
:10075000ED08154201D12B1C0E1CDB00FF24C9E65D
:10076000002B0DD0FF24002D00D1C3E68022DB0832
:10077000D2031342F1D0ED081542EED12B1CECE769
:100780002B1CFF24B6E62B1C141CB3E6231C0020F4
:10079000F1E6802300209B04FF24ECE61F1C2024AC
:1007A000CF40611A8B40591E8B413B439EE72B1C67
:1007B000A0E6C046FFFFFFFB4202510A4200C30F02
:1007C000120E00207E2A0DDD9D2A0CDC8020000404
:1007D0000143952A0ADC9620821AD1400A1C58420D
:1007E0004240D0187047034A9818FBE7963A914068
:1007F0000A1CF4E7FFFFFF7F70B5041E39D0C50F58
:1008000000D04442201C00F09BFB9E23261C1B1A98
:10081000962B07DC082801DD083884406402640A4E
:10082000D8B21EE0992B0ADD0522211C121AD140F4
:100830000A1C011C1B318E40711E8E411643052877
:1008400001DD421F96400F4C3440720704D00F2246
:100850001640042E00D0043462010ED4A401640AB0
:10086000D8B26402C005640AED0704432C43201C7F
:1008700070BD002500200024F3E7024B1C409F239D
:100880001B1AEBE7FFFFFFFBF0B55F4656464D46F0
:100890004446F0B4051C061C080387B099464F0077
:1008A000030BCC0F92469B467F0D019467D06C4B97
:1008B0009F4236D080205B4640031843C0006B0F38
:1008C0001843684B83469C4600239846EE006744D5
:1008D00000934B4649461D03C90F5B0052462D0B42
:1008E0005B0D894600D16EE05D498B4264D080206B
:1008F0005C4940038C4600210543ED00500F054341
:10090000D20063444846FF187B1C9A46009B604017
:1009100002900B430F2B00D9ACE053489B00C35807
:100920009F465B461D4300D082E0082300930023CE
:100930009B46023300269846CBE7029B0193434631
:10094000022B59D1012400250026019B1C40444B59
:1009500000212D030A0D12052D0B1543434A1B05DB
:1009600015401D436D00E4076D082543301C291C0C
:1009700007B03CBC90469946A246AB46F0BD2B431F
:100980004ED05B46002B00D185E1584600F0D8FAE6
:10099000021C2823291C9B1A161C5846D940083EC5
:1009A000B0400B1CB54003439B462E1C0023304F28
:1009B0000093BF1A98468CE7514629432ED1002553
:1009C000002202219EE75146294323D0002D00D169
:1009D00054E1281C00F0B4FA031C28215046C91A1F
:1009E0001A1CC8405146083A914095400A1C0543DC
:1009F0001F480021C31A85E7032B00D1C2E1012B58
:100A000000D06DE14446019B00251C40E4B2002368
:100A100000269DE700250022012173E7032171E7ED
:100A20000423009300239B4601330026984650E799
:100A30000C230093093B98464BE7802500242D03A7
:100A40000026074B84E74B46AB46161C01938846AD
:100A500075E7029BAB46161C019388466FE7C046BC
:100A6000FF07000001FCFFFF942A0008FFFF0F8032
:100A70000DFCFFFF330C3604360C9C46331C140C63
:100A80001204120C534398466346534399466346F7
:100A900063430193331C41466343090C4B445B1889
:100AA000994505D980204002814601994944019128
:100AB000190C039141460904090C1B045B180493AB
:100AC0002B0C9846331C2D04290C4B436046009395
:100AD0004346654658435E43009B4D431B0C994675
:100AE000AE194E448446B54203D980235B02994631
:100AF000CC44350C2B1C0398634484460593009B1F
:100B000036041B041B0CF3189C44604603905846A3
:100B10000504060C280C84465043351C814660466B
:100B2000654344434846000C8346724314195C44B1
:100B3000A24203D98022520293465D44220CAD1892
:100B40004A461204120C24044046A41862464A4342
:100B50007143464360460096464670438046100CFB
:100B600084468844E044414505D9802149028C46A9
:100B70000099614400910198039984466144994227
:100B80009B415B4299460598434684461204120CE9
:100B90001B049B1863449C46AB4683429B414046E2
:100BA0000A19CC44A2428941E344CC45B6415C4693
:100BB000000C8046494276425B42641833439844B5
:100BC0008C428941AB459B4149425B4219430D1C14
:100BD000009B4544EE187602E50D2E43B346049B78
:100BE00056021E43731E9E415B46D20D324366027F
:100BF0001643DB010AD50123334076081E435B46CA
:100C0000DB071E435B465B089B465746634BFB185E
:100C1000002B5ADD720709D00F223240042A05D07A
:100C2000321DB242B6417642B344161C5A46D20136
:100C300006D55A465A4B1A4080239346DB00FB18D0
:100C4000584A934234DD0124029B00251C400026B3
:100C5000554B7DE680205B460003034208D00542E9
:100C600006D105432D032D0B4C46161C4E4B6FE64B
:100C70005D4605432D032D0B4B4B69E6504600F0B6
:100C80005FF9031C2033272B00DCA6E65546083805
:100C900085400022ACE6281C00F052F9021C2032EC
:100CA000272A00DC75E6083885400026AB467DE63D
:100CB0005A46F608520716435A4601245502029A2C
:100CC0005B052D0B5B0D144042E6384DED1B382DB6
:100CD0000ADD0124029B00251C400026002337E684
:100CE000019B5746029391E71F2D25DC304B321CA8
:100CF0009C466744BE405B46BB40371CEA407E1EB4
:100D0000B74113433B431E1C5B46EB401D1C73075E
:100D100009D00F233340042B05D0331DB342B64115
:100D20007642AD191E1C2B0220D50124029B002502
:100D30001C40002601230BE65A461E4BDB1BDA4003
:100D4000131C202D1CD01C4A94465A466744BA40B6
:100D5000171C3E43721E96411E4307230025334055
:100D600007D00F2300253340042BD6D16B076D022B
:100D70002D0B0124F6081E43029B1C400023E7E5CF
:100D80000027E6E780255B4601242D031D43019BD8
:100D90002D0323401C1C2D0B034BD9E5FF03000042
:100DA000FFFFFFFEFE070000FF07000002FCFFFF41
:100DB0001E040000E2FBFFFF3E04000010B5041E0D
:100DC00010D000F0BDF8144A121A0A281ADC0B23BE
:100DD000211C1B1AD94015300B03520584401B0BF4
:100DE000520D01E00022002300211B03201C1C0BDC
:100DF0000B0D1B052343094C1205234013435B00D5
:100E0000590810BD031C0B3B9C40520523031B0BD0
:100E1000520D0024E8E7C0461E040000FFFF0F80CB
:100E200070B50B034D00440F6D0D5B0A23436C1C22
:100E30006405C90FC200640D012C2ADD3B4C2C193E
:100E4000FE2C1ADC002C35DD8001451EA841DB009C
:100E50000343520F13435A0704D00F221A40042AA7
:100E600000D004338022D2041A4027D00134FF2C52
:100E700003D09B015B0AE4B201E0FF2400235B0284
:100E8000E4055B0A23435B00C9075B080B43181C9E
:100E900070BD002D06D113430ED100245B025B0A06
:100EA000E4B2ECE71A43E8D08020DB00800403437F
:100EB000FF24D0E717340CDA05230024DB08FF2CCD
:100EC000ECD1002B2DD08022D20313435B025B0AAE
:100ED000D5E78024164824042343401B1F280DDC3B
:100EE000144CA4466544AB401C1C131CAB405D1E57
:100EF000AB41C240234313430024ACE71E1C0E4CFD
:100F0000641BE640341C20280DD00C488446654400
:100F1000AB401D1C2A43531E9A41131C234300243B
:100F200099E70023ABE70025F4E7C04680FCFFFF0C
:100F30009E03000082FCFFFF7E030000A2FCFFFF77
:100F40001C2101231B04984201D3000C10391B0AF9
:100F5000984201D3000A08391B09984201D30009BD
:100F6000043902A2105C40187047C0460403020214
:100F700001010101000000000000000070B50D4EED
:100F80000D4D0024AD1BAD1005D0A300F358013466
:100F90009847A542F9D101F037FD084E084D0024CD
:100FA000AD1BAD1005D0A300F35801349847A542FE
:100FB000F9D170BD582B0008582B0008582B000899
:100FC000602B000808B5034B002B02D0024800F04C
:100FD00005F808BD00000000ED0F000808B5011C71
:100FE00000220020002300F01BF808BD38B5094B93
:100FF000094CE41AA41009D0084AA518AD00ED1850
:101000002B68013C9847043D002CF9D101F002FD0A
:1010100038BDC046602B0008642B0008FFFFFF3F6F
:10102000F8B544465F4656464D469B462F4BF0B4B6
:101030001C68A4235B00051CE0580E1C9046002889
:101040004BD043681F2B0DDC5C1C002D21D10233DB
:101050009B0044601E5000203CBC90469946A2462E
:10106000AB46F8BD224B002B3CD0C820400000E02E
:1010700000BF002836D0A42200235200A1584360AC
:101080000160A05040328350043283500124002D6F
:10109000DDD09A0091468144424688214F467A50DD
:1010A000C4225200904680444246873999401268D3
:1010B0008A460A4394464246614611608422494664
:1010C0005F4652008F50022DC1D1021C55468D3211
:1010D000FF3211680D431560B9E7201C4D30FF3019
:1010E000E050AEE701204042B6E7C046D82A0008EB
:1010F0000000000008B501F041F9054B054A5B68A6
:101100001B061B0FD35CD840034B186008BDC046BC
:1011100000100240202A00083400002008B5FFF724
:10112000E9FF044B044A5B685B055B0FD35CD84066
:1011300008BDC04600100240202A000810B5041C5B
:10114000FFF7D8FFFA218900FEF7F4FF01F0A0F9BC
:101150000120211C4042002201F05EF9002010BD58
:101160001021064A08B5136803200B431360FFF7EC
:10117000E5FF00F023FC002008BDC046002002402F
:10118000024A1368013313607047C0468C04002084
:10119000014B18687047C0468C04002013B50190BD
:1011A000FFF7F6FF041CFFF7F3FF019B001B9842BB
:1011B000F9D313BD0322036870B599680A40012A68
:1011C00001D0002030E01968114202D1DA6812041F
:1011D000F7D5052299680A40012A0AD102219A68A6
:1011E000051C0A439A6003221A60FFF7D1FF061C10
:1011F00008E0031C0422012441331A70436C23438A
:10120000436410E001242B689B682342D9D0FFF788
:10121000BFFF801B0228F5D92B1C042241331A7012
:101220006B6C23436B64201C70BD0422036870B593
:101230009968114201D100201EE09968114206D040
:101240009A68920703D410219A680A439A60041C92
:10125000FFF79EFF061C042523689B682B42EAD0FB
:10126000FFF796FF801B0228F5D9231C012041338C
:101270001D70636C0343636470BD00000023032290
:1012800073B50193036899680A40012A07D1196868
:10129000114201D0002030E0DA681204FAD49968D3
:1012A000164A114208D0031C0422012441331A704B
:1012B000436C234343641FE001219A680A439A6008
:1012C000019B2F2B03D8019B01330193F8E7051CE9
:1012D000FFF75EFF061C01242B681B682342D9D14F
:1012E000FFF756FF801B0228F5D92B1C042241333F
:1012F0001A706B6C23436B64201C76BD1700008052
:1013000070470000F0B5012385B0002870D0051C9F
:1013100041352B78041C002B01D1FFF7F1FF2B780E
:10132000042B58D0042223689968114053D1023A03
:101330002A70986801320240012A50D11868104280
:1013400002D1DA6812044AD5D8682B4A276A0240CB
:10135000DA60A2699603E269D20302927A030392E9
:10136000626B013A501E824112030192A068E2684A
:10137000104306430298039A304310432269022A1D
:1013800000D10421226B5600019A304302431143DD
:10139000626A012A04D1002F02D180225202114335
:1013A000A26A102A02D0E06A02431143DA680A43B3
:1013B000DA60DA68114B13408B4205D10023012219
:1013C00063644134227013E004232B70626C033B8E
:1013D0001A4362640CE004232B70033B08E01A6993
:1013E0006068920092081A611A6902431A61ABE7B9
:1013F000181C05B0F0BDC0460102FEFFFFFF3F8391
:1014000038B50368041C98680423021C02201A40A3
:101410001FD1251C4035297801291AD0033B2B7098
:10142000E369012B05D0201CFFF728FF01280ED00F
:1014300000E0101C231C122241331A7000230421E7
:10144000636423680A321A609A680A439A60002328
:101450002B7038BD70B5051C40352B78041C02205C
:10146000012B0FD00126201C2E70FFF7DEFEB042AC
:1014700006D0201CFFF79EFEB04201D041342670FA
:1014800000232B7070BDF8B54669041C0D1C082E96
:1014900000D00C26FFF77CFE071C23681A68324236
:1014A00012D16A1CFAD0002D08D1231C032241332B
:1014B0001A70002340342370012011E0FFF768FE0A
:1014C000C01BA842E9D9F0E7A269002A01D10C3279
:1014D0001A60413423780020042B01D01523237097
:1014E000F8BD082203681A60186C7047F7B500232E
:1014F000051C019340352B78041C0220012B5BD086
:101500000123042622682B70906830404FD12B4E67
:101510004F680C68B74232D0A340181C966A8B689B
:10152000304390620720516901408B4205D05169D8
:101530008143516151690B435361102C0ED18021BD
:101540001F4A090413680B431360E023019AFF3319
:101550009A4212D8019B01330193F6E7122C04D171
:101560008021174A4904136805E0112C05D1802118
:10157000134AC90313680B43136000201AE0A34009
:10158000916A99439162102C03D10D4A0D4B116859
:101590000AE0122C03D10A4A0B4B116804E0112C0B
:1015A000EBD1074A094B11680B40136002E0181C8D
:1015B0004134267000232B70FEBDC0460110000090
:1015C00008270140FFFF7FFFFFFFFFFEFFFFBFFF78
:1015D00070470000F7B51D1C041C0E1C0192FFF79C
:1015E000D7FD019B071C002B36D12268D3693340FD
:1015F000B3420FD06B1CF9D0002D0FD0FFF7C8FD00
:10160000C01BA842F1D909E06B1C05D1D369334056
:10161000B342F9D0002021E0002D18D180212368A9
:1016200003201A688A431A601A6860398A431A606C
:1016300019680B4A0A4001211A609A688A439A6025
:10164000231C6933197000236834237006E0FFF708
:101650009FFDC01BA842E1D82268D7E7FEBDC04667
:10166000FFFEFFFFF7B5061C019369363378041CB3
:101670000D1C012B02D00220222B4CD10120002D69
:1016800049D0002A47D0271C68373978001801292B
:1016900041D0012139700021E166222B01D11033A4
:1016A00000E012233370231C50331A805A80231C0D
:1016B00052331A88002A1ED0013A1A80201C802139
:1016C0000022019BFFF786FF002801D0032022E0C3
:1016D0008023A16822685B01994208D12369002B0D
:1016E00005D12B880235DB05DB0D1385DFE72B7871
:1016F00001351385DBE7201C4021019BFFF76AFFC2
:101700000028E3D13378322B01D1103B00E00123D4
:10171000337000233B70FEBD0022036810B5C26623
:101720001B68041C1B0704D423681B685B0712D5C5
:1017300008E080210C4B8903FFF74CFF0028F3D011
:1017400003200FE08021201CC9030022064BFFF775
:1017500041FF0028F4D1231C0122002069336834A2
:101760001A70207010BDC046FFFFFF0170B5041C49
:101770000568C169A26800692B6810436269394E27
:101780001043394A0843134003432B606A68374BC0
:10179000206A1340E2681343A2696B60AB68104390
:1017A000334A13400343AB6080231B02B54208D188
:1017B000304A106B032202402F48805C99422DD1A1
:1017C00003E02E4A95421CD108E008281BD8FEF7FA
:1017D000A7FC071A0A1A0C1A1A1A1000994226D1E5
:1017E000FFF79CFC03E0264805E000F0C7FD400041
:1017F00001E0802040026168FEF79CFC83B200207B
:1018000003E099422CD1012000230F221D1C13401C
:10181000954321685B102B43CB6022E008281FD83A
:10182000FEF77EFC051E0D1E0F1E1E1E1600FFF786
:1018300075FC6168FEF77EFC80B2E8600EE011483E
:1018400001E000F09BFD6168FEF774FC80B204E0EB
:10185000802061680002FEF76DFCF060002000E06F
:10186000012070BD00380140F369FFFFFFCFFFFF8B
:10187000FFF4FFFF00100240302A0008004400403F
:101880000024F40000127A00436A30B5DA0706D566
:101890000168284A4C682240846A22434A609A07B9
:1018A00006D50168244A4C682240C46A22434A6033
:1018B0005A0706D50168214A4C682240046B22432E
:1018C0004A601A0706D501681D4A4C682240446BDD
:1018D00022434A60DA0606D501681A4A8C6822401B
:1018E000846B22438A609A0606D50168164A8C6882
:1018F0002240C46B22438A605A0610D50168134AFD
:101900004D68046C2A4022434A608022520394426C
:1019100005D14C680E4A2240446C22434A601B06A3
:1019200006D501680B4B4A681340826C13434B6029
:1019300030BDC046FFFFFDFFFFFFFEFFFFFFFBFFC7
:10194000FF7FFFFFFFEFFFFFFFDFFFFFFFFFEFFF67
:10195000FFFF9FFFFFFFF7FF38B5002801D10120EF
:1019600029E0051C69352B78041C002B01D1FFF7F9
:101970002FFE0223012122682B701368201C8B4349
:101980001360FFF7F3FE0128E9D0636A002B02D051
:10199000201CFFF779FF2368074A5968201C0A407A
:1019A0002A215A609A688A439A601A6829390A4338
:1019B0001A60FFF7B1FE38BDFFB7FFFF70470000A8
:1019C000F0B595B0FFF7CCFB00230793119312936A
:1019D000A0239B031393012302220C9307A80F3328
:1019E00010920D9300F050FA002800D0FEE7072374
:1019F000059003930690053B03A80121049300F092
:101A0000EBFB061E00D0FEE78022D94D92026B69E7
:101A1000902013436B610123D64CC00563600233F1
:101A2000E360211C1D33236000F0AEFE80226B6951
:101A3000920213436B6190201323211C2360C00585
:101A4000103B6360A66000F09FFECB4BCB4918684B
:101A5000FEF770FBCA4B0138CA4F1860CA4B78605A
:101A60003B60CA4B381CFB603E61BE607E6100F08B
:101A700073FE381C00F07AFD022390200C2763606F
:101A8000211C013BC00523612760A660E66000F0D1
:101A90007BFE8022EB6992021343EB61BC4CBD4B91
:101AA000201C236096239B016360A660E66026618C
:101AB000A6616761FFF750FF8022AB699200134374
:101AC000AB61B54DB54B281C2B6001232B616B62BC
:101AD0000F33AB620C3B6B61013B6E60AE61EE613C
:101AE000AE60EE602E622E636E63AB63FFF70AFC9E
:101AF000002800D0FEE7281C00F08EF9002800D056
:101B0000FEE780270223A64E7F013060311C281C8F
:101B10007760B360FFF7EAFC002800D0FEE70123FE
:101B2000281C3360311CDB187760B360FFF7DEFCE4
:101B3000002800D0FEE70423281C3360311C023B40
:101B40007760B360FFF7D2FC002800D0FEE7954D28
:101B5000201C291C32226423FFF784FD924B1A6853
:101B6000012A00D000E100228B4E1A60301CFFF7E2
:101B700047FC301C8D49FFF786FC071E4CD1301CFA
:101B8000FFF7AFFC8A4B1860FFF718F9894A8A4BB8
:101B9000FEF77AFE894B0022FEF776FEFFF740F94A
:101BA000874E2F7037700190FEF706FE071C0A2241
:101BB000291C00F0AFFE8349281C00F0AFFE381C42
:101BC000FEF71AFE011C0198FEF778FC7E49FEF72D
:101BD00043FBFEF7F1FD0A22311C00F09BFE311C95
:101BE000281C00F09BFE7949281C00F097FE7849DC
:101BF0000D226423201CFFF735FD291C08226423D5
:101C0000201CFFF72FFD201C724904226423FFF7DC
:101C100029FD0A20FFF7C2FA5F4E301CFFF7F0FBE8
:101C2000301C6249FFF72FFC00284AD1301CFFF717
:101C300058FC694B1860FFF7C1F85E4A5E4BFEF72F
:101C400023FE664B664AFEF71FFEFFF7E9F8019098
:101C5000FEF7B2FD071C0A22291C00F05BFE594961
:101C6000281C00F05BFE381CFEF7C6FD011C019825
:101C7000FEF724FC5449FEF7EFFAFEF79DFD504FA6
:101C80000A22391C00F046FE391C281C00F046FED2
:101C90005449281C00F042FE534914226423201C9E
:101CA000FFF7E0FC291C0A226423201CFFF7DAFC62
:101CB000201C484904226423FFF7D4FC0A20FFF7C4
:101CC0006DFA301CFFF79CFB301C3849FFF7DBFB3B
:101CD000002846D1301CFFF704FC444B1860FFF786
:101CE0006DF8434B0022FEF7CFFDFFF799F8019006
:101CF000FEF762FD071C0A22291C00F00BFE314989
:101D0000281C00F00BFE381CFEF776FD011C019824
:101D1000FEF7D4FB2C49FEF79FFAFEF74DFD284F46
:101D20000A22391C00F0F6FD391C281C00F0F6FDD3
:101D30003049281C00F0F2FD2F4912226423201C98
:101D4000FFF790FC291C0C226423201CFFF78AFC5F
:101D5000201C2A4904226423FFF784FC0A20FFF791
:101D60001DFA301CFFF776FB0A20FFF717FAF5E69D
:101D70000010024010050020340000201027000051
:101D800090040020E00500200004004087130000BC
:101D90009804002000440040280500200024014051
:101DA00070050020000000200805002040420F00C0
:101DB0001C0600206666666666664A3F00001440A0
:101DC000AE050020DC2A000800002041DE2A0008C1
:101DD000E32A00082A2B00082405002033331B4087
:101DE00033333333F12A0008F82A00089404002022
:101DF00000A0B43F0D2B0008162B0008282B00086C
:101E0000902008B5C005202100F068FD0122014B9B
:101E10001A6008BD08050020F8B5041C403422787B
:101E20000223012A2DD00322051C013B23700368E5
:101E3000413599680A40012A05D1196811421CD11F
:101E4000DA68120419D4012280212A709A680906DE
:101E50000A439A60061CFFF79BF9071C33689B68CE
:101E6000002B0CDAFFF794F9C01B0228F6D90423E3
:101E70002B7000232370013303E004232B70002315
:101E80002370181CF8BD0000F8B50368041CDB07BC
:101E900003D423689B0745D489E00C23B04D6A68BE
:101EA0001A40042A06D06A681340082B0AD16B68CE
:101EB000DB0307D52B689B03EBD56368012BE8D0C8
:101EC000012085E10023A74E3370FFF761F9071C5D
:101ED0002B689B0307D5FFF75BF9A34BC01B984208
:101EE000F6D9032074E1237933706368002B0CD09A
:101EF000FFF74EF9061C2B689B03CAD4FFF748F97D
:101F0000994B801B9842F6D9EBE7FFF741F9061C85
:101F10002B689B03BDD5FFF73BF9934B801B984281
:101F2000F6D9DEE70C238E4D6A681A4206D06A683D
:101F30001340082B10D16B68DB030DD42B689B0773
:101F400002D5E368012BBBD1F8212B6822698B43B2
:101F5000D20013432B602AE0E3680122002B17D044
:101F60002B6813432B60FFF713F9061C2B687C4981
:101F70009B0705D4FFF70CF9801B6428F6D9B0E75E
:101F8000F8200B6822698343D20013430B600EE0F4
:101F90002B6893432B60FFF7FBF8061C2B689B070D
:101FA00005D5FFF7F5F8801B6428F7D999E7236872
:101FB0001B0703D423685B074ED522E0236A012266
:101FC000674D002B0ED06B6A13436B62FFF7E0F88E
:101FD000061C6B6A9B07EDD4FFF7DAF8801B6428B8
:101FE000F7D97EE76B6A93436B62FFF7D1F8061C63
:101FF0006B6A9B07DED5FFF7CBF8801B6428F7D907
:102000006FE78022564D5205EB69584E13438022EC
:10201000EB613368520013433360FFF7B9F8071CD4
:102020003368DB051CD505222B6A93432B62FFF72F
:10203000AFF8061C2B6A4A499B0717D405200B6A88
:10204000A268834313430B62012A1DD1FFF7A0F856
:10205000061C2B6A9B0710D52368DB0621D460E0A1
:10206000FFF796F8C01B6428DAD93AE7FFF790F833
:102070003D4B801B9842DDD933E7FFF789F83A4B97
:10208000801B9842E5D92CE7FFF782F8061C2B6AE3
:102090009B07E1D5FFF77CF8334B801B9842F6D9BC
:1020A0001FE762692E4D0423012A1AD1696B0B4385
:1020B0006B636B6B1A436A63FFF76AF8061C6B6B02
:1020C00027499B0705D4FFF763F8801B6428F6D9DE
:1020D00007E7F8204B6BA2698343D20013434B639D
:1020E0001FE005320AD1F8216A6B9A436A636B6B71
:1020F000A2698B43D20013436B6312E06A6B1343F4
:1021000001226B636B6B93436B63FFF741F8061C13
:102110006B6B9B0705D5FFF73BF8801B6428F7D94D
:10212000DFE6626A002A01D1002051E00C230C4D49
:10213000012069680B40082B4AD00D4B022A38D188
:102140002A6813402B60FFF723F8061C2A68044B0B
:1021500092010FD5FFF71CF8801B6428F6D9C0E662
:10216000001002400210024088130000007000407E
:10217000FFFFFFFE0F21DA6A8A43E16A0A43DA624F
:10218000216BA06A5A68084312490A408021024321
:102190005A601A6849040A431A60FEF7F9FF041CE2
:1021A0002B689B01C0D4FEF7F3FF001B6428F7D90E
:1021B00097E62A6813402B60FEF7EAFF041C2B68A1
:1021C0009B01B1D5FEF7E4FF001B6428F7D988E630
:1021D000F8BDC046FFFFC2FF0123F7B5634A0E1CDE
:1021E0001168041C1940171C8E4261D9116899436B
:1021F0003143116012681340B34201D00120B3E0B3
:102200000268930706D5F02059494B688343A068BC
:1022100003434B60D3070BD423685B0700D49FE0D4
:102220005349544B4A681340E26813434B6097E0AC
:102230004F4D63682A68012B02D1920307D4DDE772
:10224000022B02D1920102D4D8E79207D6D50321FE
:102250006A688A4313436B60FEF79AFF6368061C43
:10226000012B0CD10C236A681340042BD4D0FEF749
:102270008FFF414B801B9842F4D9032074E0022B5E
:1022800011D10C236A681340082BC5D0FEF780FFDC
:10229000394B801B9842F4D9EFE7FEF779FF364BB4
:1022A000801B9842E9D80C236A681A42F5D1B3E73B
:1022B0000268930706D5F0202D494B688343A06838
:1022C00003434B60D30709D401223B689343334354
:1022D0003B603B681A40B24290D19DE7244D636851
:1022E0002A68012B02D1920307D487E7022B02D17F
:1022F000920102D482E7920780D503216A688A435B
:1023000013436B60FEF744FF63680190012B0CD10F
:102310000C236A681340042BD6D0FEF739FF019BCB
:10232000C01A154B9842F3D9A7E7022B13D10C23FF
:102330006A681340082BC7D0FEF72AFF019BC01A1A
:102340000D4B9842F3D998E7FEF722FF019BC01A84
:10235000094B984291D80C236A681A42F4D1B3E72A
:102360000320FEF7EBFE0020FEBDC0460020024029
:1023700000100240FFF8FFFF8813000038B50C235F
:102380000C4D68680340082B11D10B498202120FD3
:102390008C5C0F22EB6A1340CB18197CC30303D566
:1023A0000648FDF7C7FE00E00548604300E003482B
:1023B00038BDC04600100240342A000800127A00DE
:1023C00000093D000D488546002103E00C4B5B5899
:1023D000435004310B480C4B42189A42F6D30B4A37
:1023E00002E0002313600432094B9A42F9D300F053
:1023F0007BF8FEF7C3FDFFF7E3FAFEE7FF1F0020BF
:10240000642B0008000000207004002070040020ED
:1024100020060020FEE7000070B58901002815DACB
:102420000F23C0B20340083B124A9B0803249B00C1
:102430009B18FF222040A040141C8440DD691140FD
:10244000A54381402A1C0A43DA6112E084080A4B42
:102450000326A400E418FF233040B0401E1CC02512
:102460008640AD0062591940B2438140131C0B43B2
:10247000635170BD00ED00E000E100E01F23184053
:102480001E3B8340181C014B1860704700E100E0C0
:10249000094A431E012093420DD8C020074A08492B
:1024A00053600B6A00061B021B0A03430B620020E9
:1024B0000723906013607047FFFFFF0010E000E00B
:1024C00000ED00E00221074A08B5D36910200B4354
:1024D000D36101310022FFF79FFF1020FFF7CEFFED
:1024E00008BDC046001002400121114B1A680A4382
:1024F0001A6058680F4A02405A6018680E4A024033
:102500001A6018680D4A02401A6058680C4A024066
:102510000F205A60DA6A8243DA62186B094A024075
:102520001A635A6B8A435A6300229A607047C04606
:10253000001002400CB8FF08FFFFF6FEFFFFFBFF94
:10254000FFFFC0FF2CFEFFFF7047FEE7704770479C
:1025500008B5FEF715FE08BD08B5024800F014F8EE
:1025600008BDC046E00500207047704703680120A1
:10257000D9680143D9601A6802431A600020704785
:1025800070477047704770470222036810B5196999
:10259000041C114213D0D968114210D0053A1A61B7
:1025A0009B69043202769B0702D0FFF7EAFF04E042
:1025B000FFF7E6FF201CFFF7E5FF00232376042248
:1025C00023681969114216D0D968114213D0093A0B
:1025D0001A61073222769A69C0239B00201C1A4296
:1025E00002D0FFF7CEFF04E0FFF7CAFF201CFFF781
:1025F000C9FF00232376082223681969114214D0E9
:10260000D968114211D0113A1A61DB690D32227674
:10261000201C9B0702D0FFF7B4FF04E0FFF7B0FFD8
:10262000201CFFF7AFFF00232376102223681969CF
:10263000114216D0D968114213D0213A1A611932C9
:102640002276DA69C0239B00201C1A4202D0FFF7D1
:1026500098FF04E0FFF794FF201CFFF793FF00238F
:102660002376012223681969114207D0D9681142E3
:1026700004D0033A1A61201CFFF7C2FB80222368B2
:102680001969114208D0D968114205D0023AFF3ABF
:102690001A61201CFFF769FF402223681969114263
:1026A00007D0D968114204D0813A1A61201CFFF783
:1026B0006AFF202223681969114207D0D9681142A4
:1026C00004D0413A1A61201CFFF74EFF10BD0000F4
:1026D0001A4A10B50368904202D0194CA04208D1A2
:1026E0007024A3434C68234390420ED0144CA04264
:1026F0000BD0144CA04208D0134CA04205D0134C70
:10270000A04202D0124CA04203D1124C2340CC680C
:10271000234303608B68C3620B688362904208D0D6
:10272000094B984205D0094B984202D0084B984279
:1027300001D10B6903630123436110BD002C0140EB
:1027400000040040002000400040014000440140DF
:1027500000480140FFFCFFFF38B50123002810D0DE
:10276000051C39352B78041C002B01D1FFF7AAFE7C
:102770000223211D2B702068FFF7AAFF01232B7075
:102780000023181C38BD0000F0B50B6885B002931B
:1027900000230191029ADA4000D191E001229A408F
:1027A000029C1440009400D188E0019A10245268E1
:1027B000171CA743022F0ED107250F211D40AD0086
:1027C000A940DC08A4000419266A8E43019909690E
:1027D000A9400E4326620324251C5E00B540144028
:1027E000ED43B4400168013F29400C430460012FD0
:1027F0000FD801998768CC682F40B4403C4384606F
:1028000001249C404768A743D406E40F9C403C4306
:1028100044600199C46889682540B1400D43C56092
:10282000D1004BD5012103271E1C264D8C46AC69D7
:102830003E400C43AC6124499D08AD006D18B100C9
:102840000F268E40AC68B44390260394F60500240E
:10285000B0420CD01D4E6446B04208D01C4E241924
:10286000B04204D01B4E3C1CB04200D002348C401D
:1028700003990C430099AC600E1C174CCD4327689C
:102880003E43D10301D43E1C2E4026606768009E63
:102890003E43910301D43E1C2E406660A768009E13
:1028A0003E43D10201D43E1C2E40A660E668009F44
:1028B0003743920201D42E40371CE760013369E7A9
:1028C00005B0F0BD001002400000014000040048C7
:1028D00000080048000C00480004014043695940CA
:1028E00041617047931E10B5222B0FD80A2A06D0DB
:1028F00000230C1CC91800F041F8201C10BD002852
:10290000F6DA2D2340420B702C3BF2E70023002027
:102910000B70F3E708B5FFF7E5FF08BD38B5051CF8
:10292000AB0716D12A680F4B0F4CD31893432342A1
:1029300016D1043002680B4BD3189343234208D1BD
:1029400004300268074BD31893432342F1D000E0D0
:1029500001300378002BFBD100F008F8281C38BDAB
:10296000281CF6E7FFFEFEFE80808080031C0A78AC
:1029700001311A700133002AF9D17047F0B557467A
:1029800045464E46E0B48AB090466A461D4B0D1C43
:10299000061C13CB13C213CB13C213CB13C21B7869
:1029A000EA4613704346023B2F1C0024222B01D918
:1029B00024E04C46631C301C41469946FDF740FC20
:1029C00053465B5C301C3B704146FDF7B3FB01375F
:1029D000061EEED14B46E8540023002C07D0EA5CDB
:1029E000295DE9542A550133013CA342F7DB281C39
:1029F0000AB01CBC90469946A246F0BD2C7000203F
:102A0000F6E7C046302B0008F8B5C046F8BC08BC55
:102A10009E467047F8B5C046F8BC08BC9E46704755
:102A20000000000001020304010203040607080974
:102A30000004080202030405060708090A0B0C0D2E
:102A40000E0F10100102030405060708090A0B0CFB
:102A50000D0E0F10920300088A0300088A03000875
:102A600082030008D4020008D4020008780300089A
:102A700082030008D402000878030008D40200088A
:102A800082030008D6020008D6020008D602000819
:102A90001C040008740A0008520A0008520A0008C0
:102AA000460A00083A0900083A0900083A0A0008EC
:102AB000460A00083A0900083A0A00083A090008DC
:102AC000460A00083E0900083E0900083E090008C1
:102AD000540C000843000000480000202E00204154
:102AE0006D70000D20436F7272656E74652D3E200F
:102AF0000020566F6C7473000D2054656E73616F07
:102B00002042617465726961202D3E20002043657A
:102B10006C73697573000D2054656D706572617416
:102B2000757261202D3E20000A090A09000000008C
:102B30003031323334353637383961626364656633
:102B40006768696A6B6C6D6E6F707172737475769D
:082B50007778797A000000009B
:082B5800C50F0008E9000008A8
:042B6000C1000008A8
:102B64000A202A2A2A2A204578656D706C6F206411
:102B74006520414443202A2A2A2A0A0D2000000005
:102B84000000000000000000000000000000000041
:102B94000000000000127A000000000000000000A5
:102BA40001020304060708090000000034030020A2
:102BB4009C0300200404002000000000000000002A
:102BC4000000000000000000000000000000000001
:102BD400000000000000000000000000D42A0008EB
:102BE40000000000000000000000000000000000E1
:102BF40000000000000000000000000000000000D1
:102C040000000000000000000000000000000000C0
:102C140000000000000000000000000000000000B0
:102C240000000000000000000000000000000000A0
:102C34000000000000000000000000000000000090
:102C44000000000000000000000000000000000080
:102C540001000000000000000E33CDAB34126DE61D
:102C6400ECDE05000B000000000000000000000086
:102C74000000000000000000000000000000000050
:102C84000000000000000000000000000000000040
:102C94000000000000000000000000000000000030
:102CA4000000000000000000000000000000000020
:04000005080023C507
:00000001FF
