:020000040800F2
:10000000FF1F002079230008F9240008FB240008C2
:1000100000000000000000000000000000000000E0
:10002000000000000000000000000000FD240008A7
:100030000000000000000000FF2400080125000867
:10004000C923000800000000C9230008C9230008D4
:10005000C9230008C9230008C9230008C9230008D0
:1000600000000000C9230008C9230008C9230008B4
:10007000C9230008C9230008C923000800000000A4
:1000800009250008C923000800000000C923000852
:10009000C9230008C9230008C9230008C923000890
:1000A000C9230008C9230008C9230008C923000880
:1000B000C92300080000000000000000000000004C
:1000C00010B5064C2378002B07D1054B002B02D02E
:1000D000044800E000BF0123237010BD700400201D
:1000E00000000000202A0008084B10B5002B03D0A8
:1000F0000749084800E000BF07480368002B00D10B
:1001000010BD064B002BFBD09847F9E7000000001C
:1001100074040020202A0008700400200000000061
:1001200002B4714649084900095C49008E4402BC8A
:100130007047C046002243088B4274D303098B42A8
:100140005FD3030A8B4244D3030B8B4228D3030CA7
:100150008B420DD3FF22090212BA030C8B4202D349
:100160001212090265D0030B8B4219D300E0090A71
:10017000C30B8B4201D3CB03C01A5241830B8B427A
:1001800001D38B03C01A5241430B8B4201D34B0363
:10019000C01A5241030B8B4201D30B03C01A5241C8
:1001A000C30A8B4201D3CB02C01A5241830A8B424D
:1001B00001D38B02C01A5241430A8B4201D34B0236
:1001C000C01A5241030A8B4201D30B02C01A52419A
:1001D000CDD2C3098B4201D3CB01C01A524183094E
:1001E0008B4201D38B01C01A524143098B4201D388
:1001F0004B01C01A524103098B4201D30B01C01AB3
:100200005241C3088B4201D3CB00C01A524183082C
:100210008B4201D38B00C01A524143088B4201D359
:100220004B00C01A5241411A00D2014652411046B9
:100230007047FFE701B5002000F006F802BDC04698
:100240000029F7D076E770477047C046F0B55746AB
:100250004E4645464300E0B446028846760A1F0EE5
:10026000C40F002F47D0FF2F25D0002380259A46AA
:100270009946F600ED042E437F3F434642465D0219
:10028000D20F5B006D0A1B0E904640D0FF2B39D079
:1002900080220020ED00D20415437F3BFB1842462C
:1002A0005746591C62408C4607430F2F5CD86F4954
:1002B000BF00C9598F46002E45D108239A46063BF8
:1002C0009946DAE7424602282DD0032800D1C3E040
:1002D000012800D0A2E0002500260240D4B2760218
:1002E000ED05760A2E43E407264330001CBC9046F9
:1002F0009946A246F0BD002E1AD104239A46033B2C
:100300009946BAE72A00511E8A41901CC6E701208F
:10031000002DC3D0280000F0DBFD431F76309D4048
:1003200043420020BAE70124FF2514400026D6E707
:10033000300000F0CDFD431F9E4000237630474241
:100340009A46994699E70C239A46093B994694E7C1
:1003500080260024F603FF25C1E735004846B2E7B2
:10036000350022004846AEE72904090C0800370C86
:100370003604360C2C0C7943704367437443060CE7
:1003800064183619B14203D980214902884647448E
:100390000004000C310409188D01681E8541890E86
:1003A0002943350CED19AD010D43290104D5012375
:1003B00069081D4063460D4319007F31002925DD82
:1003C000680704D00F202840042800D004352801F5
:1003D00003D5274980330D401900FE29A3DC0124F1
:1003E000AD016E0A1440CDB279E78020C003064209
:1003F00007D0054205D128434602760A4446FF2528
:100400006DE706437602760AFF2568E70124611A44
:100410001B2905DD14400025002660E76346CBE775
:100420002E002023CE40591A8D406B1E9D412E4335
:10043000730704D00F233340042B00D0043673011C
:1004400004D5012401251440002648E70124B60103
:10045000760A1440002542E780260124F6032E4345
:100460007602760A1440FF2539E7C0466C2A000858
:10047000FFFFFFF7F8B54A024E0043024400240E86
:10048000C50F9B09360EC90F9209FF2E00D183E0DC
:1004900001204140A01BA9425CD0002800DC95E06F
:1004A000002E1CD1002A00D081E05A0704D00F2270
:1004B0001A40042A00D004335A013BD50134FF2CE2
:1004C00000D191E001209B015B0AE4B205405B0290
:1004D000E4055B0AED0723432B431800F8BDFF2C0E
:1004E000E3D08021C9040A431B2800DD90E01600F8
:1004F0002021C640081A8240511E8A4132439B1A6D
:100500005A0115D59B019E09300000F0E1FC053829
:10051000864084426CDC041B330020200134E3401D
:10052000041BA640721E964100243343BDE70D0014
:100530005A07BCD1DF0801231D40FF2C33D1002F07
:1005400000D190E08022D20313003B435B025B0AA0
:10055000FF24BCE700284FDD002E2ED0FF2CA4D0B6
:100560008025ED042A431B2800DD97E01600202596
:10057000C640281A8240501E824132439B185A01BD
:10058000D5D50134FF2C6DD001227B481A405B0881
:10059000034013430D0088E7002A00D07AE777E78D
:1005A000031EC5D100257B025B0AE4B28FE7013848
:1005B0000028A4D0FF2C97D177E7002A00D174E758
:1005C00001380028DAD0FF2CCDD16EE7002821D1E8
:1005D000601CC0B2012858DD80279E1AFF043740F6
:1005E0002FD0D61A0D008FE701231D4000236EE7A0
:1005F000624B241A334058E7002851D1601CC6B220
:10060000012E33DDFF282DD09B185B0804004CE73A
:10061000012274E7002C1AD0FF2E1FD08024E4049E
:10062000404223431B2800DD96E01D002024C540E6
:10063000201A8340581E83412B43D31A34000D00E7
:100640005EE7002E00D05FE700250024ABE7002B1B
:1006500044D0C0430028F0D0FF2EE3D11300FF2484
:100660000D0022E70D00FF24002330E7002C5DD1B0
:10067000002B7DD0002A00D117E79B185A0100D427
:1006800056E73E4A040013400FE7002C1ED1002B12
:100690002FD1002A65D013000D0006E701226DE777
:1006A000002C1FD1002B59D0C04300280BD0FF2EA7
:1006B0004FD01B285EDC1D002024C540201A83403B
:1006C000581E83412B439B18340058E7002B1CD144
:1006D000002A49D013000D00FF24E6E61300340081
:1006E0000D00E2E6FF2E34D08024E4044042234390
:1006F000DFE7002A00D1D8E68027981AFF040740D8
:1007000000D14DE7D31A0D00CFE6FF24002A00D117
:10071000CBE68020DB08C003034204D0D2080242AB
:1007200001D113000D00DB00FF24BEE6002B10D02A
:10073000FF24002A00D1B8E68020DB08C003034272
:1007400003D0D208024200D11300DB000D00FF24C9
:10075000ABE61300FF24A8E601236EE71300340084
:10076000A3E6002700251EE780270025FF03E9E612
:1007700013009AE60123A6E7FFFFFF7DFFFFFFFBC3
:100780004302590A4300C20F1B0E00207E2B0EDDD0
:100790009D2B0DDC802000040143952B0BDC962063
:1007A000C31AD9400B005842002A00D118007047E4
:1007B000034BD018FBE7963B99400B00F3E7C0468C
:1007C000FFFFFF7F70B5002830D0C317C5185D400C
:1007D000C40F280000F07CFB9E231B1A962B0DDC17
:1007E0009622D21A95406A02520AD8B25202C00525
:1007F000520AE40702432243100070BD992B19DC12
:100800009922D21A9540124A2A40690704D00F2132
:100810000D40042D00D00432510103D50C4B1A4079
:100820009F231B1A9201520AD8B2DFE7002400204E
:100830000022DBE705222E00121AB921D6402A0039
:10084000C91A8A40551EAA4135001543DBE7C04648
:10085000FFFFFFFBF0B55F4656464D464446F0B4F9
:100860000D0399464E002B0B87B007009246804639
:100870009B46760DCC0F002E69D06D4B9E4235D035
:100880005B468022DD001204430F13432B439B463B
:10089000C3009846674B00279C460023664401939B
:1008A0004A4615035000D20F53462D0B400D91467A
:1008B00000D176E05E4A90426CD080225B0F120439
:1008C00013435C4AED0094461D4353460022DB006F
:1008D000604449463618701C6140029017430F2F40
:1008E00000D9AFE05448BF00C759BF465B461F431D
:1008F00000D088E000239B469846023308270193E6
:10090000CEE74946022A6AD0032A00D109E2012A29
:1009100000D0BBE111400022002300259046CCB25C
:1009200000212D030A0D12052D0B1543434A1B050B
:1009300015401D436D00E4076D082543404629001E
:1009400007B03CBC90469946A246AB46F0BD034377
:1009500052D05B46002B00D18AE1584600F0B8FA2D
:1009600003000B3B1C2B00DD7BE11D22D31A3A0058
:1009700001005D46DA4008398D4013008F402B435B
:100980009B46B8462E4B00279C46002360444642B7
:10099000019385E752462A432CD1002500230222E9
:1009A00097E752462A4321D0002D00D154E1280078
:1009B00000F08EFA03000B3B1C2B00DD46E11D21ED
:1009C000CB1A51460200D9405346083A954093400D
:1009D0000D431B4A944660444042002279E70124BB
:1009E00000220C40124B0025904699E70025002379
:1009F00001226EE703226CE700239B4698460133F1
:100A0000042701934CE703230C27019348E70023B5
:100A10008025984600242D03054B81E75D4643461B
:100A2000019A6FE75D4643462100019A6AE7C04696
:100A3000FF07000001FCFFFFAC2A0008FFFF0F804A
:100A4000F30300004246120C91461A0C94464246AB
:100A500017044A461B041B0C5A43604690464A46FC
:100A600042431000039262461C003F0C7A437C43D1
:100A700042440192220C9246019A5244904506D972
:100A80008246802040028046C24450460390100CAB
:100A9000049048462404240C1204121905922A0CCE
:100AA0002D042D0C68432C00824648467C4350435D
:100AB0008146200C8046574357444744BA4503D9E2
:100AC000802040028046C144380C3F04B846484468
:100AD0002404240C01900498A044404404905846F7
:100AE000000C814658460404200C82460700484604
:100AF0005F434C46434360466043644683465046EA
:100B00004443380C8446E4186444A34203D9802348
:100B10005B029C46E34448463F04230C3F0C2404FC
:100B2000E419574668436F4384464D465046554343
:100B30004243380C814662444A445B44944503D99D
:100B4000802040028446654403983F04834604980D
:100B50003F0C8446E344C345804140428246100432
:100B600084460198674484466744A344BC46A34531
:100B7000A4419946D44464428742BF41D445804150
:100B8000E144A04699459B417F424042C844074307
:100B9000120CBA18A045A4415F423B0064422343B3
:100BA000D71843467D19DB0D6D021D435B465A0283
:100BB000059B1A43531E9A415B46DB0D1A4343467D
:100BC0005B021343EA0107D501225C08134023436B
:100BD000EA07029E13436D08574AB218002A4BDDFC
:100BE000580709D00F201840042805D0181D984236
:100BF0009B415B42ED180300E80104D54F4A1540C4
:100C00008022D200B2184E48824200DDE7E601247D
:100C1000DB08680718436D02530580462D0B5B0DFA
:100C20000C407DE6802259461203114208D015423D
:100C300006D115432D0398462D0B4C46414B6FE6CC
:100C40005D4615432D032D0B3E4B69E603005546CB
:100C5000283B9D400023BCE6504600F039F9203087
:100C6000A8E60300283B9F400023BB46984689E640
:100C700000F02EF9203073E60124A61A382E07DD85
:100C800000220C4000230025904649E6029EA3E77F
:100C90001F2E20DC20222C001800921BF0409440D4
:100CA00093400443581E83411C43F540630709D019
:100CB0000F232340042B05D023001C1D9C4292418E
:100CC0005242AD182B021FD5012400220C400123F3
:100CD0000025904624E61F202C004042821AD44072
:100CE000202E1CD04022961BB5402B43581E83411A
:100CF0000720234318400025002809D00F22002593
:100D00001A401C00042AD8D1230068076D022D0B5D
:100D10000124DB08034398460C40002300E600252D
:100D2000E3E780220124120315432D0398462D0B7F
:100D30000C40044BF4E5C046FF030000FFFFFFFE3C
:100D4000FE070000FF07000070B5051E28D000F068
:100D5000BFF8154B154A1B1AD21A1F2A16DD2C0094
:100D6000134A0025D21A94405A052403240B520D2D
:100D7000002124030B0D240B1B0523430D4C1205EE
:100D8000234013435B002800590870BD0B212C0041
:100D9000081AC440954024035A05240B520DE7E776
:100DA00000220024E4E7C0461E04000033040000D3
:100DB00013040000FFFF0F804B0070B55E0D0C03A5
:100DC000751C640A420F6D052243C90FC4006D0DE6
:100DD000012D2ADD3B4BF318FE2B1ADC002B42DDE4
:100DE0008001451EA841D2001043620F0243500704
:100DF00004D00F201040042800D004328020C0040A
:100E0000104021D00133FF2B03D09201520ADBB2F4
:100E100001E0FF2300225202520ADB0513435B006C
:100E2000C9075B080B43180070BD002E07D01443A0
:100E3000EFD08020D20080040243FF23D7E7224373
:100E40000023002A03D00522D208FF2B03D0520230
:100E5000520ADBB2DFE7002A32D08020C00302430F
:100E60005202520AD7E71800173014DB8020000422
:100E700002431E20C01A1F280FDC2500124BF31856
:100E80009D406E1EB5419A402B0013432200C24084
:100E90001A430023ABE70023D5E702256D42EB1A86
:100EA0001500DD40202809D0084BF3189A40144360
:100EB000621E9441220000232A4398E70022F6E7AD
:100EC0000022A8E780FCFFFF82FCFFFFA2FCFFFFDF
:100ED0001C2101231B04984201D3000C10391B0A6A
:100EE000984201D3000A08391B09984201D300092E
:100EF000043902A2105C40187047C0460403020285
:100F000001010101000000000000000070B50D4E5D
:100F10000D4D0024AD1BAD1005D0A300F3580134D6
:100F20009847A542F9D101F07BFD084E084D0024F9
:100F3000AD1BAD1005D0A300F35801349847A5426E
:100F4000F9D170BD5C2B00085C2B00085C2B0008FD
:100F5000642B0008034B10B5002B02D0024800F0B0
:100F600005F810BD000000007D0F000810B501005D
:100F700000230022002000F01BF810BD70B5094BC3
:100F8000094CE41AA41009D0084AA518AD00ED18C0
:100F90002B68013C9847043D002CF9D101F046FD37
:100FA00070BDC046642B0008682B0008FFFFFF3FA0
:100FB000F8B544465F4656464D469B462F4BF0B427
:100FC0001C68A4235B000500E0580E009046002832
:100FD0004BD043681F2B0DDC5C1C002D21D102334C
:100FE0009B0044601E5000203CBC90469946A2469F
:100FF000AB46F8BD224B002B3CD0C820400000E09F
:1010000000BF002836D0A42200235200A15843601C
:101010000160A05040328350043283500124002DDF
:10102000DDD09A0091468144424688214F467A504D
:10103000C422520090468044424687399940126843
:101040008A460A43944642466146116084224946D4
:101050005F4652008F50022DC1D1020055468D329D
:10106000FF3211680D431560B9E720004D30FF30A5
:10107000E050AEE701204042B6E7C046F02A000843
:101080000000000010B501F053F9054B054A5B68FC
:101090001B061B0FD35CD840034B186010BDC04625
:1010A00000100240382A00083400002010B5FFF775
:1010B000E9FF044B044A5B685B055B0FD35CD840D7
:1010C00010BDC04600100240382A000810B50400C8
:1010D000FFF7D8FFFA218900FFF72CF801F0B0F9EB
:1010E000012000222100404201F070F9002010BDD3
:1010F0001021064A10B5136803200B431360FFF755
:10110000E5FF00F027FC002010BDC0460020024093
:10111000024A1368013313607047C0468C040020F4
:10112000014B18687047C0468C04002013B501902D
:10113000FFF7F6FF0400FFF7F3FF019B001B984247
:10114000F9D313BD0322F8B50368050099680A4076
:10115000012A01D0002030E01968114202D1DA687A
:101160001204F7D505229C681440012C0AD10221F3
:101170009A6827000A439A6003221A60FFF7D0FF9B
:10118000060008E02B000422012041331A706B6C2A
:1011900003436B6411E02B6801249B683B42D9D068
:1011A000FFF7BEFF801B0228F5D92B000422200088
:1011B00041331A706B6C23436B64F8BD04220368DF
:1011C00070B599680400114201D100201EE09968B1
:1011D000114206D09A68920703D410219A680A43F4
:1011E0009A60FFF79DFF0425060023689B682B4249
:1011F000EBD0FFF795FF801B0228F6D923000422CD
:10120000012041331A70636C0343636470BD0000B6
:101210000023F7B5032201930368050099680A408B
:10122000012A07D11968114201D0002030E0DA68A4
:101230001204FAD49968174A114208D02B000422EC
:10124000012041331A706B6C03436B6420E0012171
:101250009A680A439A60019B2F2B03D8019B0133A4
:101260000193F8E7FFF75CFF012607002B680124D4
:101270001B683342D9D1FFF753FFC01B0228F5D9B1
:101280002B000422200041331A706B6C23436B64E3
:10129000FEBDC0461700008070470000F7B504008F
:1012A0000120002C6ED0250041352B78002B02D177
:1012B0002000FFF7F1FF2B78042B56D0042223687F
:1012C0009968114051D1023A2A709868013202405F
:1012D000012A4ED11868104202D1DA68120448D5AA
:1012E000D868294A276A0240DA60A2699603E2694F
:1012F000D2030192626B013A501E824112030092A6
:10130000E068A2681043064301987A033043104313
:101310002269022A00D10421226B5600009A304330
:1013200002431143626A012A04D1002F02D18022B4
:1013300052021143A26A102A02D0E06A024311430A
:10134000DA680A43DA60DA68104B1340994205D133
:101350000020012360644134237013E00423012042
:101360002B70636C034363640CE0042301202B7037
:1013700008E01A696068920092081A611A690243CB
:101380001A61ADE7FEBDC0460102FEFFFFFF3F83CD
:10139000036870B504009868042303400220002B02
:1013A0001FD1250040352A78012A1AD001222A703F
:1013B000E269012A05D02000FFF72AFF01280ED09C
:1013C00000E018002300122241331A700023042188
:1013D000636423680A321A609A680A439A60002399
:1013E0002B7070BD70B5050040352B7804000220CD
:1013F000012B0FD0012620002E70FFF7DFFEB04238
:1014000006D02000FFF79EFEB04201D04134267086
:1014100000232B7070BDF8B5466904000D00082E3E
:1014200000D00C26FFF77CFE070023681A683242C2
:1014300012D16A1CFAD0002D08D1230003224133B7
:101440001A70002340342370012011E0FFF768FE7A
:10145000C01B8542E9D2F0E7A269002A01D10C3213
:101460001A60413423780020042B01D01523237007
:10147000F8BD082203681A60186C7047F7B500239E
:101480000500019340352B7804000220012B5BD02E
:101490000123042622682B70906830404FD12B4ED8
:1014A0004F680C68B74232D0A34018000723966AF1
:1014B00030439062886851691940884205D051696B
:1014C00099435161536903435361102C0ED180211C
:1014D0001F4A090413680B431360E022FF32019B8B
:1014E000934212D8019B01330193F8E7122C04D1E7
:1014F0008021174A4904136805E0112C05D1802189
:10150000134AC90313680B43136000201AE0A34079
:10151000916A99439162102C03D10D4A0D4B1168C9
:101520000AE0122C03D10A4A0B4B116804E0112C7B
:10153000EBD1074A094B11680B40136002E0180019
:101540004134267000232B70FEBDC0460110000000
:1015500008270140FFFF7FFFFFFFFFFEFFFFBFFFE8
:1015600070470000F7B51D0004000E000192FFF760
:10157000D7FD019B0700002B36D12268D369334089
:101580009E420FD06B1CF9D0002D0FD0FFF7C8FD85
:10159000C01B8542F1D209E06B1C05D1D3693340F1
:1015A0009E42F9D0002021E0002D18D1802123682F
:1015B00003201A688A431A601A6860398A431A60DD
:1015C00019680B4A0A4001211A609A688A439A6096
:1015D00023006933197000236834237006E0FFF795
:1015E0009FFDC01B8542E1D32268D7E7FEBDC04600
:1015F000FFFEFFFFF7B5060001936936337804005C
:101600000D00012B02D00220222B4DD10120002DF4
:101610004AD0002A48D027006837397800180129B5
:1016200042D0012139700021E166222B01D1103313
:1016300000E012233370230050331A805A802300B5
:1016400052331A88002A1FD0013A1A808021019B48
:1016500000222000FFF786FF002801D0032023E0AE
:10166000A3682268190080235B01994208D123698D
:10167000002B05D12B880235DB05DB0D1385DEE75A
:101680002B7801351385DAE7019B40212000FFF715
:1016900069FF0028E2D13378322B01D1103B00E002
:1016A0000123337000233B70FEBD0000002203685D
:1016B00010B5C2661B6804001B0704D423681B68AE
:1016C0005B0712D508E080210C4B8903FFF74AFF26
:1016D0000028F3D003200FE08021084B0022C9032B
:1016E0002000FFF73FFF0028F4D123000122002053
:1016F000693368341A70207010BDC046FFFFFF01C7
:1017000070B504000568C169226980682B681043C0
:1017100062693A4E10433A4A0843134003432B6030
:101720006A68384BA0691340E2681343226A6B6011
:10173000AB681043344A13400343AB6080231B0261
:10174000B54208D1314A106B032202403048805C18
:10175000994204D02DE02F4A95421ED108E0082876
:101760001DD8FEF7DDFC071C0A1C0D1C1C1C1200FA
:10177000994227D1FFF79AFC04E06168264807E008
:1017800000F0D6FD4000616802E080206168400200
:10179000FEF7D0FC83B2002003E099422CD1012057
:1017A00000230F211A07520F8B4321681343CB608C
:1017B00023E0082820D8FEF7B3FC051F0D1F101FDB
:1017C0001F1F1700FFF772FC6168FEF7B3FC80B2C1
:1017D000E8600FE06168114802E000F0A9FD61686F
:1017E000FEF7A8FC80B204E0802061680002FEF7EA
:1017F000A1FCF060002000E0012070BD0038014035
:10180000F369FFFFFFCFFFFFFFF4FFFF001002406F
:10181000482A0008004400400024F40000127A0026
:10182000436A30B5DA0706D50168284A4C68224079
:10183000846A22434A609A0706D50168244A4C68A4
:101840002240C46A22434A605A0706D50168214AE9
:101850004C682240046B22434A601A0706D501688F
:101860001D4A4C682240446B22434A60DA0606D582
:1018700001681A4A8C682240846B22438A609A0667
:1018800006D50168164A8C682240C46B22438A60E0
:101890005A0610D50168134A4D68046C2A40224349
:1018A0004A6080225203944205D14C680E4A22407D
:1018B000446C22434A601B0606D501680B4B4A68FC
:1018C0001340826C13434B6030BDC046FFFFFDFFE9
:1018D000FFFFFEFFFFFFFBFFFF7FFFFFFFEFFFFFAD
:1018E000FFDFFFFFFFFFEFFFFFFF9FFFFFFFF7FFA0
:1018F00070B5041E01D1012028E0050069352B7860
:10190000002B01D1FFF72CFE0223012122682B704E
:10191000136820008B431360FFF7F2FE0128EAD022
:10192000636A002B02D02000FFF77AFF2368084A81
:10193000596820000A402A215A609A688A439A60AE
:101940001A6829390A431A60FFF7B0FE70BDC04615
:10195000FFB7FFFF70470000902010B52021C005A1
:1019600000F094FF0122014B1A6010BD70050020A9
:1019700010B5040000F0DAFF322382B221000248E1
:10198000FFF738FE10BDC0469C04002070B505006E
:101990000024AC4204D00348FFF7EAFF0134F8E723
:1019A00070BDC046092B0008F0B500230D000124CE
:1019B0000A2189B0061C934204D04C430133E4B29F
:1019C000DBB2F8E7301CFEF7DBFE69460A220700AF
:1019D00000F078FF6946280000F078FF012C1CD940
:1019E0000F49280000F072FF3800FEF7EBFE011CE3
:1019F000301CFEF73FFD061C2000FEF7E3FE011C35
:101A0000301CFEF723FCFEF7BBFE69460A2200F0FD
:101A100059FF6946280000F059FF09B0F0BDC046E3
:101A2000F42A0008F0B593B0FFF762FB002305939A
:101A30000F931093A0239B031193012302220A9377
:101A400005A80F330E920B9300F0E2F9002800D0A6
:101A5000FEE70723039001930490053B012101A8B1
:101A6000029300F095FB051E00D0FEE78022A74CF4
:101A7000920263699020134363610123A44EC00561
:101A800073600233F36031001D33336000F054FEA5
:101A90008022636992021343636190201323310013
:101AA0003360C005103B7360B56000F045FE994B94
:101AB00099491868FEF73EFB984B0138984F18601B
:101AC000984B78603B60984B3800FB603D61BD608F
:101AD0007D6100F019FE380000F020FD0223902007
:101AE0000C2731007360C005013B37603361B5607E
:101AF000F56000F021FE8022E36992021343E36166
:101B00008A4E8B4B3000336096239B017360776164
:101B1000B560F5603561B561FFF7EAFE8022A36923
:101B200092001343A361834C834B20002360012365
:101B3000236163620F33A3620C3B6361013B656009
:101B4000A561E561A560E560256225636563A36322
:101B5000FFF7A4FB2700002800D0FEE7200000F0DC
:101B600021F9002800D0FEE78023744D5B016B60F3
:101B70000223286029002000AB60FFF77FFC0028CB
:101B800000D0FEE701232B6080235B016B60022302
:101B900029002000AB60FFF771FC002800D0FEE7B1
:101BA00004232B6080235B016B600223290020004B
:101BB000AB60FFF763FC002800D0FEE7642332220D
:101BC0005F493000FFF716FD5E4B1A68012A00D00E
:101BD00098E0002238001A60FFF7DAFB5A49380013
:101BE000FFF719FC594D00281CD13800FFF741FCC4
:101BF000574B1860574B984202D800232B600EE0D9
:101C0000554BC018FFF7A0F8544A554BFEF722FE7B
:101C10000022544BFEF71EFEFFF7CEF828600A2084
:101C2000FFF784FA3800FFF7B3FB47493800FFF7A6
:101C3000F2FB002815D13800FFF71BFC4A4B186057
:101C4000FFF782F8454A464BFEF704FE474B484AE9
:101C5000FEF700FEFFF7B0F8464B18600A20FFF7CA
:101C600065FA3800FFF794FB37493800FFF7D3FBDC
:101C7000414E002810D13800FFF7FBFB3F4B1860A6
:101C8000FFF762F800223E4BFEF7E4FDFFF794F801
:101C900030600A20FFF74AFA3800FFF7A3FB08205C
:101CA000FFF774FE374C3849200000F037FE374903
:101CB000200000F00BFE022221002868FFF774FECE
:101CC0003349200000F002FE3249200000F0FEFD02
:101CD000284B022218682100FFF766FE2E492000DB
:101CE00000F0F4FD2D49200000F0F0FD022221005B
:101CF0003068FFF759FE2A49200000F0E7FD200078
:101D0000FFF736FE0A20FFF711FA5DE700100240E8
:101D100078050020340000201027000090040020E7
:101D2000E805002000040040871300009C04002008
:101D3000004400409005002000240140D805002008
:101D4000000000207005002040420F009804002091
:101D5000440600208709000078F6FFFF6666666685
:101D600066664A3F000014408C05002033331B4058
:101D700033333333E405002074050020940400203D
:101D800000A0B43F0C050020F62A00080C2B000828
:101D9000172B00081B2B0008242B0008282B0008F9
:101DA0002F2B0008F8B504004034237805000220EA
:101DB000012B2CD0012303222E0023702B684136E7
:101DC00099680A40012A05D1196811421BD1DA68C5
:101DD000120418D40122802132709A6809060A433D
:101DE0009A60FFF79DF907002B689B68002B0CDABF
:101DF000FFF796F9C01B0228F6D90423337000239D
:101E00000120237003E00423337000202070F8BD0C
:101E10000368F7B50400DB0703D423689B074DD4A0
:101E200093E00C23BA4D6A681A40042A06D06A6807
:101E30001340082B0AD16B68DB0307D52B689B0383
:101E4000EBD56368012BE8D001209DE10023B14E62
:101E50003370FFF765F9019680260700B6022B68FC
:101E6000334207D0FFF75CF9AB4BC01B9842F6D961
:101E7000032089E12379019A13706368002B0ED047
:101E8000FFF74EF980260700B6022B683342C4D113
:101E9000FFF746F9A04BC01B9842F6D9E8E7FFF7D9
:101EA0003FF980260700B6022B683342B5D0FFF712
:101EB00037F9994BC01B9842F6D9D9E70C23944DBA
:101EC0006A681A4206D06A681340082B10D16B6802
:101ED000DB030DD42B689B0702D5E368012BB3D13C
:101EE000F8212B6822698B43D20013432B602CE02E
:101EF000E3680122002B18D02B68022613432B60C5
:101F0000FFF70EF907002B688149334205D1FFF72F
:101F100007F9C01B6428F6D9AAE7F8200B682269E4
:101F20008343D20013430B600FE02B6802269343D8
:101F30002B60FFF7F5F807002B68334205D0FFF759
:101F4000EFF8C01B6428F7D992E723681B0703D476
:101F500023685B0752D524E0236A01226C4D002BD5
:101F60000FD06B6A022613436B62FFF7D9F80700A4
:101F70006B6A3342ECD1FFF7D3F8C01B6428F7D962
:101F800076E76B6A022693436B62FFF7C9F8070096
:101F90006B6A3342DCD0FFF7C3F8C01B6428F7D963
:101FA00066E7802280275A4D5205EB695B4E13434A
:101FB000EB6133687F003B433360FFF7B1F801907A
:101FC00033683B421ED005222B6A022693432B62C4
:101FD000FFF7A6F807002B6A4D49334219D10520B7
:101FE0000B6AA268834313430B62012A1FD1FFF7D8
:101FF00097F8022607002B6A334211D02368DB06CC
:1020000023D464E0FFF78CF8019BC01A6428D7D969
:102010002EE7FFF785F8404BC01B9842DBD927E736
:10202000FFF77EF83C4BC01B9842E4D920E7FFF74E
:1020300077F8022607002B6A3342DFD0FFF770F8EB
:10204000354BC01B9842F6D912E76269304D042324
:10205000012A1BD1696B02260B436B636B6B1A431E
:102060006A63FFF75DF807006B6B2949334205D1BE
:10207000FFF756F8C01B6428F6D9F9E6F8204B6B39
:10208000A2698343D20013434B6320E005320AD197
:10209000F8216A6B9A436A636B6BA2698B43D20027
:1020A00013436B6313E06A6B0226134301226B63D5
:1020B0006B6B93436B63FFF733F807006B6B334233
:1020C00005D0FFF72DF8C01B6428F7D9D0E6626A67
:1020D000002A01D1002057E00C230D4D0120696832
:1020E0000B40082B50D00E4B022A3CD12A68802688
:1020F00013402B60FFF714F80700B6042A68044B5E
:1021000032420FD0FFF70CF8C01B6428F6D9AFE6B7
:1021100000100240021002408813000000700040CE
:10212000FFFFFFFE0F21DA6A8A43E16A0A43DA629F
:10213000A16A206B5A680843144980240A40802110
:1021400002435A601A6849040A431A60FEF7E8FF1E
:102150000600A4042B682342BCD1FEF7E1FF801BDC
:102160006428F7D984E62A68802413402B60FEF7A0
:10217000D7FF0600A4042B682342ABD0FEF7D0FFA4
:10218000801B6428F7D973E6FEBDC046FFFFC2FF7F
:102190000123F7B5624A0E001168040019401700C8
:1021A000B1425FD211689943314311601268134004
:1021B0009E4201D00120B1E00268930706D5F020CD
:1021C00058494B688343A06803434B60D3070BD443
:1021D00023685B0700D49DE05249534B4A68134083
:1021E000E26813434B6095E04E4D63682A68012B0B
:1021F00002D1920307D4DDE7022B02D1920102D46F
:10220000D8E79207D6D503216A680C278A4313437F
:102210006B60FEF785FF63680600012B0BD16B68CE
:102220003B40042BD4D0FEF77BFF404B801B9842F1
:10223000F5D9032072E0022B10D16B683B40082BCC
:10224000C6D0FEF76DFF394B801B9842F5D9F0E7F9
:10225000FEF766FF354B801B9842EAD86B683B421D
:10226000F6D1B5E70268930706D5F0202D494B68F3
:102270008343A06803434B60D30709D401223B6822
:10228000934333433B603B681A40964292D19FE7A9
:10229000244D63682A68012B02D1920307D489E791
:1022A000022B02D1920102D484E7920782D5032146
:1022B0006A688A4313436B60FEF732FF63680190DC
:1022C000012B0CD10C226B681340042BD6D0FEF7E7
:1022D00027FF019BC01A154B9842F3D9A9E7022B9F
:1022E00013D10C226B681340082BC7D0FEF718FFE0
:1022F000019BC01A0D4B9842F3D99AE7FEF710FFE5
:10230000019BC01A094B984293D80C226B68134268
:10231000F4D1B3E70320FEF7D9FE0020FEBDC0468E
:102320000020024000100240FFF8FFFF8813000069
:102330000C2370B50C4D6A681340082B11D10B4863
:102340000733910C1940445CE96A0B40C318197CAF
:10235000D30303D50648FDF7EDFE00E005486043D2
:1023600000E0034870BDC046001002404C2A00083F
:1023700000127A0000093D000D488546002103E067
:102380000C4B5B58435004310B480C4B42189A429B
:10239000F6D30B4A02E0002313600432094B9A4241
:1023A000F9D300F079F8FEF7B1FDFFF73BFBFEE74C
:1023B000FF1F0020682B0008000000207004002090
:1023C0007004002048060020FEE7000070B5890177
:1023D000002814DA0F23C0B20340083B114A9B08BF
:1023E00003249B009B18FF222040A04014000A40B9
:1023F00084408240DD69A5432A43DA6111E0820806
:10240000094B03259200D218FF232840A8401D0045
:10241000C02485400B408340A4001659AE4333438B
:10242000135170BD00ED00E000E100E01F231840F3
:102430001E3B8340014A13607047C04600E100E044
:10244000094A431E012093420DD8C020074A08497B
:1024500053600B6A00061B021B0A03430B62002039
:102460000723906013607047FFFFFF0010E000E05B
:1024700000ED00E00221074A10B5D36910200B439C
:10248000D36101310022FFF7A1FF1020FFF7CEFF3B
:1024900010BDC046001002400121114B1A680A43CA
:1024A0001A6058680F4A02405A6018680E4A024083
:1024B0001A6018680D4A02401A6058680C4A0240B7
:1024C0000F205A60DA6A8243DA62186B094A0240C6
:1024D0001A635A6B8A435A6300229A607047C04657
:1024E000001002400CB8FF08FFFFF6FEFFFFFBFFE5
:1024F000FFFFC0FF2CFEFFFF7047FEE770477047ED
:1025000010B5FEF705FE10BD10B5024800F014F836
:1025100010BDC046E80500207047704703680120E1
:10252000D9680143D9601A6802431A6000207047D5
:1025300070477047704770470222036810B51969E9
:102540000400114213D0D968114210D0053A1A6123
:102550009B69043202769B0702D0FFF7EAFF04E092
:10256000FFF7E6FF2000FFF7E5FF002323760422B4
:1025700023681969114216D0D968114213D0093A5B
:102580001A61073222769A69C0239B0020001A4202
:1025900002D0FFF7CEFF04E0FFF7CAFF2000FFF7ED
:1025A000C9FF00232376082223681969114214D039
:1025B000D968114211D0113A1A61DB690D322276C5
:1025C00020009B0702D0FFF7B4FF04E0FFF7B0FF45
:1025D0002000FFF7AFFF002323761022236819693C
:1025E000114216D0D968114213D0213A1A6119321A
:1025F0002276DA69C0239B0020001A4202D0FFF73E
:1026000098FF04E0FFF794FF2000FFF793FF0023FB
:102610002376012223681969114207D0D968114233
:1026200004D0033A1A612000FFF796F9802223684C
:102630001969114208D0D968114205D0023AFF3A0F
:102640001A612000FFF769FF4022236819691142CF
:1026500007D0D968114204D0813A1A612000FFF7EF
:102660006AFF202223681969114207D0D9681142F4
:1026700004D0413A1A612000FFF74EFF10BD000060
:102680001A4A10B50368904202D0194CA04208D1F2
:102690007024A3434C68234390420ED0144CA042B4
:1026A0000BD0144CA04208D0134CA04205D0134CC0
:1026B000A04202D0124CA04203D1124C2340CC685D
:1026C000234303608B68C3620B688362904208D027
:1026D000094B984205D0094B984202D0084B9842CA
:1026E00001D10B6903630123436110BD002C01403C
:1026F0000004004000200040004001400044014030
:1027000000480140FFFCFFFF70B504000120002CD1
:1027100010D0250039352B78002B02D12000FFF78F
:10272000A9FE022320682B70211DFFF7A9FF0123BA
:1027300000202B7070BD0000F0B50B6885B00393CE
:1027400000230291039ADA4000D190E001229A40DE
:10275000039C1440019400D187E0029A1021526832
:1027600016008E43022E0ED107251D40AD00013903
:10277000A940DC08A4000419276A8F43029909695B
:10278000A9400F43276203245F00BC400321E443B8
:102790001140B9400568013E25400D430560012EFA
:1027A00010D802998568CE682540BE403543012681
:1027B0009E40012185604568B54316090E409E4044
:1027C00035434560C56802992C408D688021BD4025
:1027D00049052C43C4600A4247D00121254D0327F7
:1027E000AC691F400C43AC610F2423499D08AD0028
:1027F000BF006D18BC409021AE68C905A6430024F7
:1028000088420CD01D490134884208D01C4901344B
:10281000884204D01B490334884200D1023CBC40AA
:10282000019934430E00AC60174CCD4327683E43FA
:10283000D10301D43E002E4026606768019E3E43CE
:10284000910301D43E002E406660A768019E3E437E
:10285000D10201D43E002E40A660E668019F3743B6
:10286000920201D42E403700E76001336AE705B0D9
:10287000F0BDC046001002400000014000040048C6
:1028800000080048000C004800040140436959401A
:1028900041617047931E10B50C00222B0ED80A2AF6
:1028A00005D00021611800F075F8200010BD002847
:1028B000F7DA2D2340420B700121F3E700230020BB
:1028C0000B70F3E710B5FFF7E5FF10BD70B505001D
:1028D000830717D102680F4BD31893430E4A140095
:1028E00013420FD1043002680A4BD318934323429A
:1028F00008D104300268074BD31893432342F1D028
:1029000000E001300378002BFBD100F007F828002D
:1029100070BDC046FFFEFEFE80808080031C0A78EA
:1029200001311A700133002AF9D1704710B58307BD
:1029300027D00378002B26D00300032102E01A7869
:10294000002A1CD001330B42F9D119680F4A104CF0
:102950008A188A4322420FD1043319680B4A8A1815
:102960008A43224208D104331968084A8A188A43E4
:102970002242F1D000E001331A78002AFBD1181A64
:1029800010BD0300E1E70020FAE7C046FFFEFEFEAF
:1029900080808080F0B5574645464E46E0B48AB008
:1029A00090466A461D4B0D00060013CB13C213CB95
:1029B00013C213CB13C21B78EA4613704346023B83
:1029C0002F000024222B01D924E04C46631C300048
:1029D00041469946FDF734FC53465B5C30003B7042
:1029E0004146FDF7A7FB0137061EEED14B46E854E2
:1029F0000023002C07D0EA5C295DE9542A550133F5
:102A0000013CA342F7DB28000AB01CBC9046994663
:102A1000A246F0BD2C700020F6E7C046342B00081B
:102A2000F8B5C046F8BC08BC9E467047F8B5C0462D
:082A3000F8BC08BC9E4670478B
:102A3800000000000102030401020304060708095C
:102A48000004080202030405060708090A0B0C0D16
:102A58000E0F10100102030405060708090A0B0CE3
:102A68000D0E0F1068030008C6020008C602000811
:102A7800C40200085A0300085A030008500300085B
:102A8800C40200085A030008500300085A0300084B
:102A9800C40200086003000860030008600300081F
:102AA800EA030008440A00080409000804090008A9
:102AB800020900081C0A00081C0A00080E0A00087F
:102AC800020900081C0A00080E0A00081C0A00086F
:102AD80002090008240A0008240A0008240A000839
:102AE800240C000843000000480000202E004C651C
:102AF800697475726120646F2053697374656D61C0
:102B08003A0D0A00436F7272656E74653A090041A6
:102B18000D0A0054656E73E36F3A0900560D0A00FA
:102B280054656D703A0900B0430D0A0030313233F4
:102B38003435363738396162636465666768696A4F
:102B48006B6C6D6E6F707172737475767778797A55
:042B58000000000079
:082B5C00550F0008E900000814
:042B6400C1000008A4
:102B68000A202A2A2A2A204578656D706C6F20640D
:102B78006520414443202A2A2A2A0A0D2000000001
:102B8800000000000000000000000000000000003D
:102B98000000000000127A000000000000000000A1
:102BA800010203040607080900000000340300209E
:102BB8009C03002004040020000000000000000026
:102BC80000000000000000000000000000000000FD
:102BD800000000000000000000000000EC2A0008CF
:102BE80000000000000000000000000000000000DD
:102BF80000000000000000000000000000000000CD
:102C080000000000000000000000000000000000BC
:102C180000000000000000000000000000000000AC
:102C2800000000000000000000000000000000009C
:102C3800000000000000000000000000000000008C
:102C4800000000000000000000000000000000007C
:102C580001000000000000000E33CDAB34126DE619
:102C6800ECDE05000B000000000000000000000082
:102C7800000000000000000000000000000000004C
:102C8800000000000000000000000000000000003C
:102C9800000000000000000000000000000000002C
:102CA800000000000000000000000000000000001C
:040000050800237953
:00000001FF
