:020000040800F2
:10000000FF1F00202D240008ED250008EF25000823
:1000100000000000000000000000000000000000E0
:10002000000000000000000000000000F1250008B2
:100030000000000000000000F3250008F52500087E
:100040007D240008000000007D2400087D240008B5
:100050007D2400087D2400087D2400087D240008FC
:10006000000000007D2400087D2400087D24000895
:100070007D2400087D2400087D2400080000000085
:10008000FD2500087D240008000000007D240008F4
:100090007D2400087D2400087D2400087D240008BC
:1000A0007D2400087D2400087D2400087D240008AC
:1000B0007D24000800000000000000000000000097
:1000C00010B5064C2378002B07D1054B002B02D02E
:1000D000044800E000BF0123237010BD700400201D
:1000E00000000000842E0008084B10B5002B03D040
:1000F0000749084800E000BF07480368002B00D10B
:1001000010BD064B002BFBD09847F9E7000000001C
:1001100074040020842E00087004002000000000F9
:1001200002B4714649084900095C49008E4402BC8A
:100130007047C046002243088B4274D303098B42A8
:100140005FD3030A8B4244D3030B8B4228D3030CA7
:100150008B420DD3FF22090212BA030C8B4202D349
:100160001212090265D0030B8B4219D300E0090A71
:10017000C30B8B4201D3CB03C01A5241830B8B427A
:1001800001D38B03C01A5241430B8B4201D34B0363
:10019000C01A5241030B8B4201D30B03C01A5241C8
:1001A000C30A8B4201D3CB02C01A5241830A8B424D
:1001B00001D38B02C01A5241430A8B4201D34B0236
:1001C000C01A5241030A8B4201D30B02C01A52419A
:1001D000CDD2C3098B4201D3CB01C01A524183094E
:1001E0008B4201D38B01C01A524143098B4201D388
:1001F0004B01C01A524103098B4201D30B01C01AB3
:100200005241C3088B4201D3CB00C01A524183082C
:100210008B4201D38B00C01A524143088B4201D359
:100220004B00C01A5241411A00D2014652411046B9
:100230007047FFE701B5002000F006F802BDC04698
:100240000029F7D076E770477047C046F0B55746AB
:100250004E4645464300E0B446028846760A1F0EE5
:10026000C40F002F47D0FF2F25D0002380259A46AA
:100270009946F600ED042E437F3F434642465D0219
:10028000D20F5B006D0A1B0E904640D0FF2B39D079
:1002900080220020ED00D20415437F3BFB1842462C
:1002A0005746591C62408C4607430F2F5CD86F4954
:1002B000BF00C9598F46002E45D108239A46063BF8
:1002C0009946DAE7424602282DD0032800D1C3E040
:1002D000012800D0A2E0002500260240D4B2760218
:1002E000ED05760A2E43E407264330001CBC9046F9
:1002F0009946A246F0BD002E1AD104239A46033B2C
:100300009946BAE72A00511E8A41901CC6E701208F
:10031000002DC3D0280000F019FE431F76309D4009
:1003200043420020BAE70124FF2514400026D6E707
:10033000300000F00BFE431F9E4000237630474202
:100340009A46994699E70C239A46093B994694E7C1
:1003500080260024F603FF25C1E735004846B2E7B2
:10036000350022004846AEE72904090C0800370C86
:100370003604360C2C0C7943704367437443060CE7
:1003800064183619B14203D980214902884647448E
:100390000004000C310409188D01681E8541890E86
:1003A0002943350CED19AD010D43290104D5012375
:1003B00069081D4063460D4319007F31002925DD82
:1003C000680704D00F202840042800D004352801F5
:1003D00003D5274980330D401900FE29A3DC0124F1
:1003E000AD016E0A1440CDB279E78020C003064209
:1003F00007D0054205D128434602760A4446FF2528
:100400006DE706437602760AFF2568E70124611A44
:100410001B2905DD14400025002660E76346CBE775
:100420002E002023CE40591A8D406B1E9D412E4335
:10043000730704D00F233340042B00D0043673011C
:1004400004D5012401251440002648E70124B60103
:10045000760A1440002542E780260124F6032E4345
:100460007602760A1440FF2539E7C046D02E0008F0
:10047000FFFFFFF7F8B54A024E0043024400240E86
:10048000C50F9B09360EC90F9209FF2E00D183E0DC
:1004900001204140A01BA9425CD0002800DC95E06F
:1004A000002E1CD1002A00D081E05A0704D00F2270
:1004B0001A40042A00D004335A013BD50134FF2CE2
:1004C00000D191E001209B015B0AE4B205405B0290
:1004D000E4055B0AED0723432B431800F8BDFF2C0E
:1004E000E3D08021C9040A431B2800DD90E01600F8
:1004F0002021C640081A8240511E8A4132439B1A6D
:100500005A0115D59B019E09300000F01FFD0538EA
:10051000864084426CDC041B330020200134E3401D
:10052000041BA640721E964100243343BDE70D0014
:100530005A07BCD1DF0801231D40FF2C33D1002F07
:1005400000D190E08022D20313003B435B025B0AA0
:10055000FF24BCE700284FDD002E2ED0FF2CA4D0B6
:100560008025ED042A431B2800DD97E01600202596
:10057000C640281A8240501E824132439B185A01BD
:10058000D5D50134FF2C6DD001227B481A405B0881
:10059000034013430D0088E7002A00D07AE777E78D
:1005A000031EC5D100257B025B0AE4B28FE7013848
:1005B0000028A4D0FF2C97D177E7002A00D174E758
:1005C00001380028DAD0FF2CCDD16EE7002821D1E8
:1005D000601CC0B2012858DD80279E1AFF043740F6
:1005E0002FD0D61A0D008FE701231D4000236EE7A0
:1005F000624B241A334058E7002851D1601CC6B220
:10060000012E33DDFF282DD09B185B0804004CE73A
:10061000012274E7002C1AD0FF2E1FD08024E4049E
:10062000404223431B2800DD96E01D002024C540E6
:10063000201A8340581E83412B43D31A34000D00E7
:100640005EE7002E00D05FE700250024ABE7002B1B
:1006500044D0C0430028F0D0FF2EE3D11300FF2484
:100660000D0022E70D00FF24002330E7002C5DD1B0
:10067000002B7DD0002A00D117E79B185A0100D427
:1006800056E73E4A040013400FE7002C1ED1002B12
:100690002FD1002A65D013000D0006E701226DE777
:1006A000002C1FD1002B59D0C04300280BD0FF2EA7
:1006B0004FD01B285EDC1D002024C540201A83403B
:1006C000581E83412B439B18340058E7002B1CD144
:1006D000002A49D013000D00FF24E6E61300340081
:1006E0000D00E2E6FF2E34D08024E4044042234390
:1006F000DFE7002A00D1D8E68027981AFF040740D8
:1007000000D14DE7D31A0D00CFE6FF24002A00D117
:10071000CBE68020DB08C003034204D0D2080242AB
:1007200001D113000D00DB00FF24BEE6002B10D02A
:10073000FF24002A00D1B8E68020DB08C003034272
:1007400003D0D208024200D11300DB000D00FF24C9
:10075000ABE61300FF24A8E601236EE71300340084
:10076000A3E6002700251EE780270025FF03E9E612
:1007700013009AE60123A6E7FFFFFF7DFFFFFFFBC3
:100780004302590A4300C20F1B0E00207E2B0EDDD0
:100790009D2B0DDC802000040143952B0BDC962063
:1007A000C31AD9400B005842002A00D118007047E4
:1007B000034BD018FBE7963B99400B00F3E7C0468C
:1007C000FFFFFF7F70B5002830D0C317C5185D400C
:1007D000C40F280000F0BAFB9E231B1A962B0DDCD9
:1007E0009622D21A95406A02520AD8B25202C00525
:1007F000520AE40702432243100070BD992B19DC12
:100800009922D21A9540124A2A40690704D00F2132
:100810000D40042D00D00432510103D50C4B1A4079
:100820009F231B1A9201520AD8B2DFE7002400204E
:100830000022DBE705222E00121AB921D6402A0039
:10084000C91A8A40551EAA4135001543DBE7C04648
:10085000FFFFFFFB70B5041E28D000F077FB9E233E
:100860001B1A962B0ADC9622D21A94406202520A74
:10087000D8B25202520AC005104370BD992B18DC41
:100880009922D21A9440114A2240610704D00F21C4
:100890000C40042C00D00432510103D50B4B1A40FC
:1008A0009F231B1A9201520AD8B2E2E700200022CD
:1008B000DFE705222500121AB921D5402200C91A06
:1008C0008A40541EA2412C001443DCE7FFFFFFFBCB
:1008D000F0B55F4656464D464446F0B40D03994682
:1008E0004E002B0B87B00700924680469B46760D44
:1008F000CC0F002E69D06D4B9E4235D05B468022D6
:10090000DD001204430F13432B439B46C30098465C
:10091000674B00279C460023664401934A46150313
:100920005000D20F53462D0B400D914600D176E07A
:100930005E4A90426CD080225B0F120413435C4AE3
:10094000ED0094461D4353460022DB0060444946B7
:100950003618701C6140029017430F2F00D9AFE08A
:100960005448BF00C759BF465B461F4300D088E0CC
:1009700000239B469846023308270193CEE7494659
:10098000022A6AD0032A00D109E2012A00D0BBE181
:1009900011400022002300259046CCB200212D03F7
:1009A0000A0D12052D0B1543434A1B0515401D4327
:1009B0006D00E4076D0825434046290007B03CBCA4
:1009C00090469946A246AB46F0BD034352D05B46E3
:1009D000002B00D18AE1584600F0B8FA03000B3B27
:1009E0001C2B00DD7BE11D22D31A3A0001005D467D
:1009F000DA4008398D4013008F402B439B46B846A0
:100A00002E4B00279C46002360444642019385E715
:100A100052462A432CD100250023022297E7524652
:100A20002A4321D0002D00D154E1280000F08EFA95
:100A300003000B3B1C2B00DD46E11D21CB1A514668
:100A40000200D9405346083A954093400D431B4A53
:100A5000944660444042002279E7012400220C4081
:100A6000124B0025904699E70025002301226EE7EE
:100A700003226CE700239B46984601330427019329
:100A80004CE703230C27019348E700238025984671
:100A900000242D03054B81E75D464346019A6FE72D
:100AA0005D4643462100019A6AE7C046FF07000001
:100AB00001FCFFFF102F0008FFFF0F80F303000071
:100AC0004246120C91461A0C9446424617044A4676
:100AD0001B041B0C5A43604690464A464243100092
:100AE000039262461C003F0C7A437C4342440192CD
:100AF000220C9246019A5244904506D982468020A3
:100B000040028046C24450460390100C0490484670
:100B10002404240C1204121905922A0C2D042D0C05
:100B200068432C00824648467C4350438146200C53
:100B30008046574357444744BA4503D98020400272
:100B40008046C144380C3F04B84648442404240C71
:100B500001900498A044404404905846000C8146FB
:100B600058460404200C8246070048465F434C4622
:100B70004343604660436446834650464443380CD2
:100B80008446E4186444A34203D980235B029C4654
:100B9000E34448463F04230C3F0C2404E419574621
:100BA00068436F4384464D46504655434243380C94
:100BB000814662444A445B44944503D98020400204
:100BC0008446654403983F04834604983F0C84465A
:100BD000E344C34580414042824610048446019864
:100BE000674484466744A344BC46A345A441994650
:100BF000D44464428742BF41D4458041E144A04689
:100C000099459B417F424042C8440743120CBA18A1
:100C1000A045A4415F423B0064422343D7184346AA
:100C20007D19DB0D6D021D435B465A02059B1A437D
:100C3000531E9A415B46DB0D1A4343465B02134346
:100C4000EA0107D501225C0813402343EA07029E0C
:100C500013436D08574AB218002A4BDD580709D0D4
:100C60000F201840042805D0181D98429B415B4274
:100C7000ED180300E80104D54F4A15408022D20048
:100C8000B2184E48824200DDE7E60124DB0868071F
:100C900018436D02530580462D0B5B0D0C407DE61D
:100CA000802259461203114208D0154206D115433D
:100CB0002D0398462D0B4C46414B6FE65D46154380
:100CC0002D032D0B3E4B69E603005546283B9D4006
:100CD0000023BCE6504600F039F92030A8E60300B6
:100CE000283B9F400023BB46984689E600F02EF93A
:100CF000203073E60124A61A382E07DD00220C40AE
:100D000000230025904649E6029EA3E71F2E20DC23
:100D100020222C001800921BF04094409340044382
:100D2000581E83411C43F540630709D00F2323401D
:100D3000042B05D023001C1D9C4292415242AD1849
:100D40002B021FD5012400220C40012300259046D0
:100D500024E61F202C004042821AD440202E1CD0B2
:100D60004022961BB5402B43581E83410720234346
:100D700018400025002809D00F2200251A401C0029
:100D8000042AD8D1230068076D022D0B0124DB084B
:100D9000034398460C40002300E60025E3E7802249
:100DA0000124120315432D0398462D0B0C40044BD0
:100DB000F4E5C046FF030000FFFFFFFEFE07000052
:100DC000FF07000070B5051E28D000F0BFF8154BD6
:100DD000154A1B1AD21A1F2A16DD2C00134A0025A9
:100DE000D21A94405A052403240B520D00212403E7
:100DF0000B0D240B1B0523430D4C120523401343FD
:100E00005B002800590870BD0B212C00081AC44053
:100E1000954024035A05240B520DE7E700220024D5
:100E2000E4E7C0461E040000330400001304000081
:100E3000FFFF0F804B0070B55E0D0C03751C640A3C
:100E4000420F6D052243C90FC4006D0D012D2ADD2F
:100E50003B4BF318FE2B1ADC002B42DD8001451EB4
:100E6000A841D2001043620F0243500704D00F2064
:100E70001040042800D004328020C004104021D04B
:100E80000133FF2B03D09201520ADBB201E0FF23B2
:100E900000225202520ADB0513435B00C9075B08BC
:100EA0000B43180070BD002E07D01443EFD08020F4
:100EB000D20080040243FF23D7E722430023002A05
:100EC00003D00522D208FF2B03D05202520ADBB214
:100ED000DFE7002A32D08020C00302435202520AC8
:100EE000D7E71800173014DB8020000402431E20CF
:100EF000C01A1F280FDC2500124BF3189D406E1EF0
:100F0000B5419A402B0013432200C2401A430023EC
:100F1000ABE70023D5E702256D42EB1A1500DD4053
:100F2000202809D0084BF3189A401443621E9441BC
:100F3000220000232A4398E70022F6E70022A8E7D0
:100F400080FCFFFF82FCFFFFA2FCFFFF1C210123AE
:100F50001B04984201D3000C10391B0A984201D39C
:100F6000000A08391B09984201D30009043902A27A
:100F7000105C40187047C0460403020201010101E1
:100F8000000000000000000070B50D4E0D4D002463
:100F9000AD1BAD1005D0A300F35801349847A5420E
:100FA000F9D101F06FFF084E084D0024AD1BAD10C4
:100FB00005D0A300F35801349847A542F9D170BD7C
:100FC000902F0008902F0008902F0008982F0008FD
:100FD000034B10B5002B02D0024800F005F810BDFD
:100FE00000000000F90F000810B5010000230022E6
:100FF000002000F01BF810BD70B5094B094CE41A35
:10100000A41009D0084AA518AD00ED182B68013CC2
:101010009847043D002CF9D101F03AFF70BDC0465D
:10102000982F00089C2F0008FFFFFF3FF8B54446AB
:101030005F4656464D469B462F4BF0B41C68A42392
:101040005B000500E0580E00904600284BD0436836
:101050001F2B0DDC5C1C002D21D102339B00446052
:101060001E5000203CBC90469946A246AB46F8BDB7
:10107000224B002B3CD0C820400000E000BF0028DD
:1010800036D0A42200235200A15843600160A05032
:1010900040328350043283500124002DDDD09A0069
:1010A00091468144424688214F467A50C4225200DC
:1010B0009046804442468739994012688A460A43DE
:1010C0009446424661461160842249465F4652007A
:1010D0008F50022DC1D1020055468D32FF3211686A
:1010E0000D431560B9E720004D30FF30E050AEE70A
:1010F00001204042B6E7C046542F0008000000001F
:1011000010B501F06FF9054B054A5B681B061B0F14
:10111000D35CD840034B186010BDC046001002409D
:101120009C2E00083400002010B5FFF7E9FF044BA7
:10113000044A5B685B055B0FD35CD84010BDC046BA
:10114000001002409C2E000810B50400FFF7D8FFE5
:10115000FA218900FEF7EEFF01F0CCF90120002210
:101160002100404201F08CF9002010BD1021064AF8
:1011700010B5136803200B431360FFF7E5FF00F081
:1011800027FC002010BDC04600200240024A136820
:10119000013313607047C0468C040020014B18686F
:1011A0007047C0468C04002013B50190FFF7F6FF8E
:1011B0000400FFF7F3FF019B001B9842F9D313BD16
:1011C0000322F8B50368050099680A40012A01D096
:1011D000002030E01968114202D1DA681204F7D514
:1011E00005229C681440012C0AD102219A6827002C
:1011F0000A439A6003221A60FFF7D0FF060008E056
:101200002B000422012041331A706B6C03436B6482
:1012100011E02B6801249B683B42D9D0FFF7BEFF49
:10122000801B0228F5D92B000422200041331A70BC
:101230006B6C23436B64F8BD0422036870B5996836
:101240000400114201D100201EE09968114206D02D
:101250009A68920703D410219A680A439A60FFF7AC
:101260009DFF0425060023689B682B42EBD0FFF707
:1012700095FF801B0228F6D9230004220120413368
:101280001A70636C0343636470BD00000023F7B5FC
:10129000032201930368050099680A40012A07D1D7
:1012A0001968114201D0002030E0DA681204FAD443
:1012B0009968174A114208D02B00042201204133BB
:1012C0001A706B6C03436B6420E001219A680A4337
:1012D0009A60019B2F2B03D8019B01330193F8E700
:1012E000FFF75CFF012607002B6801241B683342CF
:1012F000D9D1FFF753FFC01B0228F5D92B000422D8
:10130000200041331A706B6C23436B64FEBDC046F2
:101310001700008070470000F7B504000120002C82
:101320006ED0250041352B78002B02D12000FFF72D
:10133000F1FF2B78042B56D00422236899681140C2
:1013400051D1023A2A70986801320240012A4ED1E6
:101350001868104202D1DA68120448D5D868294AC0
:10136000276A0240DA60A2699603E269D203019219
:10137000626B013A501E824112030092E068A2683B
:101380001043064301987A03304310432269022A2E
:1013900000D10421226B5600009A304302431143CE
:1013A000626A012A04D1002F02D180225202114325
:1013B000A26A102A02D0E06A02431143DA680A43A3
:1013C000DA60DA68104B1340994205D100200123FE
:1013D00060644134237013E0042301202B70636C9C
:1013E000034363640CE0042301202B7008E01A69B6
:1013F0006068920092081A611A6902431A61ADE7A7
:10140000FEBDC0460102FEFFFFFF3F83036870B5CB
:1014100004009868042303400220002B1FD12500FC
:1014200040352A78012A1AD001222A70E269012A5D
:1014300005D02000FFF72AFF01280ED000E0180099
:101440002300122241331A700023042163642368AD
:101450000A321A609A680A439A6000232B7070BDA2
:1014600070B5050040352B7804000220012B0FD009
:10147000012620002E70FFF7DFFEB04206D02000CC
:10148000FFF79EFEB04201D04134267000232B703E
:1014900070BDF8B5466904000D00082E00D00C267A
:1014A000FFF77CFE070023681A68324212D16A1CDB
:1014B000FAD0002D08D12300032241331A700023F3
:1014C00040342370012011E0FFF768FEC01B854205
:1014D000E9D2F0E7A269002A01D10C321A60413446
:1014E00023780020042B01D015232370F8BD082297
:1014F00003681A60186C7047F7B500230500019364
:1015000040352B7804000220012B5BD001230426F8
:1015100022682B70906830404FD12B4E4F680C687A
:10152000B74232D0A34018000723966A3043906236
:10153000886851691940884205D0516999435161C1
:10154000536903435361102C0ED180211F4A0904B3
:1015500013680B431360E022FF32019B934212D8C1
:10156000019B01330193F8E7122C04D18021174A23
:101570004904136805E0112C05D18021134AC903E1
:1015800013680B43136000201AE0A340916A99434B
:101590009162102C03D10D4A0D4B11680AE0122CF8
:1015A00003D10A4A0B4B116804E0112CEBD1074A16
:1015B000094B11680B40136002E01800413426709B
:1015C00000232B70FEBDC04601100000082701401B
:1015D000FFFF7FFFFFFFFFFEFFFFBFFF7047000021
:1015E000F7B51D0004000E000192FFF7D7FD019B27
:1015F0000700002B36D12268D36933409E420FD0BA
:101600006B1CF9D0002D0FD0FFF7C8FDC01B854221
:10161000F1D209E06B1C05D1D36933409E42F9D069
:10162000002021E0002D18D18021236803201A68B2
:101630008A431A601A6860398A431A6019680B4A2B
:101640000A4001211A609A688A439A60230069332C
:10165000197000236834237006E0FFF79FFDC01B5C
:101660008542E1D32268D7E7FEBDC046FFFEFFFFFB
:10167000F7B5060001936936337804000D00012B9D
:1016800002D00220222B4DD10120002D4AD0002A69
:1016900048D02700683739780018012942D0012145
:1016A00039700021E166222B01D1103300E01223B2
:1016B0003370230050331A805A80230052331A8823
:1016C000002A1FD0013A1A808021019B00222000AD
:1016D000FFF786FF002801D0032023E0A3682268DB
:1016E000190080235B01994208D12369002B05D1A1
:1016F0002B880235DB05DB0D1385DEE72B78013502
:101700001385DAE7019B40212000FFF769FF0028DD
:10171000E2D13378322B01D1103B00E0012333704A
:1017200000233B70FEBD00000022036810B5C266B6
:101730001B6804001B0704D423681B685B0712D5D1
:1017400008E080210C4B8903FFF74AFF0028F3D003
:1017500003200FE08021084B0022C9032000FFF77F
:101760003FFF0028F4D123000122002069336834B0
:101770001A70207010BDC046FFFFFF0170B5040055
:101780000568C169226980682B68104362693A4E16
:1017900010433A4A0843134003432B606A68384BAE
:1017A000A0691340E2681343226A6B60AB68104380
:1017B000344A13400343AB6080231B02B54208D177
:1017C000314A106B032202403048805C994204D0B9
:1017D0002DE02F4A95421ED108E008281DD8FEF7BB
:1017E0009FFC071C0A1C0D1C1C1C1200994227D1CF
:1017F000FFF79AFC04E06168264807E000F0F2FD7C
:101800004000616802E0802061684002FEF792FCBF
:1018100083B2002003E099422CD1012000230F2144
:101820001A07520F8B4321681343CB6023E008282B
:1018300020D8FEF775FC051F0D1F101F1F1F170076
:10184000FFF772FC6168FEF775FC80B2E8600FE09C
:101850006168114802E000F0C5FD6168FEF76AFCAE
:1018600080B204E0802061680002FEF763FCF06053
:10187000002000E0012070BD00380140F369FFFF47
:10188000FFCFFFFFFFF4FFFF00100240AC2E000867
:10189000004400400024F40000127A00436A30B58E
:1018A000DA0706D50168284A4C682240846A224338
:1018B0004A609A0706D50168244A4C682240C46AE7
:1018C00022434A605A0706D50168214A4C682240E3
:1018D000046B22434A601A0706D501681D4A4C680A
:1018E0002240446B22434A60DA0606D501681A4A50
:1018F0008C682240846B22438A609A0606D5016870
:10190000164A8C682240C46B22438A605A0610D55E
:101910000168134A4D68046C2A4022434A608022C1
:101920005203944205D14C680E4A2240446C224333
:101930004A601B0606D501680B4B4A681340826C4F
:1019400013434B6030BDC046FFFFFDFFFFFFFEFFAE
:10195000FFFFFBFFFF7FFFFFFFEFFFFFFFDFFFFF4B
:10196000FFFFEFFFFFFF9FFFFFFFF7FF70B5041EB4
:1019700001D1012028E0050069352B78002B01D129
:10198000FFF72CFE0223012122682B701368200030
:101990008B431360FFF7F2FE0128EAD0636A002B45
:1019A00002D02000FFF77AFF2368084A5968200018
:1019B0000A402A215A609A688A439A601A6829392B
:1019C0000A431A60FFF7B0FE70BDC046FFB7FFFFC5
:1019D00070470000902010B52021C00501F088F963
:1019E0000122014B1A6010BDAC05002010B50400A7
:1019F00001F0CEF9322382B221000248FFF738FE0F
:101A000010BDC0469C040020F0B500230E00012448
:101A10000A218BB01500019092B2934204D24C433C
:101A20000133A4B29BB2F8E70198FEF7A9FE02A920
:101A30000A22070001F078F902A9300001F078F9D4
:101A4000002D31D03800FEF7BDFE011C0198FEF7D5
:101A500011FD071C2000FEF7B5FE011C381CFEF727
:101A6000F5FB1249071C300001F062F9012D10D07E
:101A700020000A21FEF75EFB84B2381CFEF780FED0
:101A8000A04203DA0A49300001F052F9013DEDB2FB
:101A9000ECE7381CFEF774FE02A90A2201F044F9B3
:101AA00002A9300001F044F90BB0F0BD5B2F000833
:101AB0005D2F0008144B70B518681449FEF73AFB07
:101AC0000024134B0138134D1860134B68602B60D2
:101AD000124B2800EB602C61AC606C6100F069FF78
:101AE00060230F4922000B609533FF3328004B60C1
:101AF0008C600C61CC604C618C6100F0B3FF2800FD
:101B0000210001F025F870BD3400002040420F0094
:101B1000900400200C05002000440140E703000071
:101B2000B0050020F0B593B0FFF720FB002305932C
:101B30000F931093A0239B031193012302220A9376
:101B400005A80F330E920B9300F0BCF9002800D0CB
:101B5000FEE70723039001930490053B012101A8B0
:101B6000029300F06FFB051E00D0FEE78022974C29
:101B7000920263699020134363610123944FC0056F
:101B80007B600233FB6039001D333B6001F006F8D7
:101B9000802263699202134363619020132339000A
:101BA0003B60C005103B7B60BD6000F0F7FF894BD8
:101BB00089491868FEF7BEFA884B0138884E1860CC
:101BC000884B70603360884B3000F3603561B560DE
:101BD000756100F0D7FE300000F0DEFD022390209A
:101BE0000C2639007B60C005013B3E603B61BD6057
:101BF000FD6000F0D3FF8022E36992021343E361AA
:101C00007A4F7B4B38003B6096239B017B607E6163
:101C1000BD60FD603D61BD61FFF7A8FE8022A36944
:101C200092001343A361734C734B20002360012384
:101C3000236163620F33A3620C3B6361013B656008
:101C4000A561E561A560E560256225636563A36321
:101C5000FFF762FB2600002800D0FEE7200000F01E
:101C6000FBF8002800D0FEE78023644D5B016B6029
:101C70000223286029002000AB60FFF73DFC00280C
:101C800000D0FEE701232B6080235B016B60022301
:101C900029002000AB60FFF72FFC002800D0FEE7F2
:101CA00004232B6080235B016B600223290020004A
:101CB000AB60FFF721FC002800D0FEE7642332224E
:101CC0004F493800FFF7D4FCFFF7F4FE4D4B1A687C
:101CD000012A76D1002230001A60FFF797FB4A49AB
:101CE0003000FFF7D6FB494C002818D13000FFF731
:101CF000FEFB474B2060474D984202D800232B60E3
:101D00000AE0454BC018FFF75DF8444A444BFEF724
:101D1000DFFDFFF78FF828600A20FFF745FA300053
:101D2000FFF774FB38493000FFF7B3FB002815D1EB
:101D30003000FFF7DCFB3B4B1860FFF743F83A4AF3
:101D40003A4BFEF7C5FD3A4B3A4AFEF7C1FDFFF7A5
:101D500071F8394B18600A20FFF726FA3000FFF7B8
:101D600055FB29493000FFF794FB002811D13000C2
:101D7000FFF7BDFB314B1860FFF724F8304B002212
:101D8000FEF7A6FDFFF756F82E4B18600A20FFF766
:101D90000BFA3000FFF764FB2B4D2C49280000F0B4
:101DA000EFFF2B4B2068C018FEF754FD00222900DE
:101DB000FFF72AFE2749280000F0BAFF2800FFF7A6
:101DC00015FE0A20FFF7F0F980E7C0460010024038
:101DD000D0050020340000201027000090040020CF
:101DE0004006002000040040E70300009C0400209F
:101DF00000440040E8050020002401403006002097
:101E000000000020AC05002040420F009C0600208E
:101E1000470D000098040020B8F2FFFF7B14AE4786
:101E2000E17A743FE40500206666666666664A3FAE
:101E3000DBB613406EDBB66D3C0600209404002038
:101E400000A0B43FCC050020480500205F2F00080B
:101E500030F8FFFF582F0008F8B50400403423780D
:101E600005000220012B2CD0012303222E00237019
:101E70002B68413699680A40012A05D11968114238
:101E80001BD1DA68120418D40122802132709A68BA
:101E900009060A439A60FFF781F907002B689B68DF
:101EA000002B0CDAFFF77AF9C01B0228F6D90423BD
:101EB000337000230120237003E0042333700020DB
:101EC0002070F8BD0368F7B50400DB0703D423686E
:101ED0009B074DD493E00C23BA4D6A681A40042A3C
:101EE00006D06A681340082B0AD16B68DB0307D55C
:101EF0002B689B03EBD56368012BE8D001209DE1A3
:101F00000023B14E3370FFF749F901968026070090
:101F1000B6022B68334207D0FFF740F9AB4BC01B2A
:101F20009842F6D9032089E12379019A13706368F6
:101F3000002B0ED0FFF732F980260700B6022B687F
:101F40003342C4D1FFF72AF9A04BC01B9842F6D9FF
:101F5000E8E7FFF723F980260700B6022B68334233
:101F6000B5D0FFF71BF9994BC01B9842F6D9D9E7BA
:101F70000C23944D6A681A4206D06A681340082BF5
:101F800010D16B68DB030DD42B689B0702D5E36887
:101F9000012BB3D1F8212B6822698B43D200134364
:101FA0002B602CE0E3680122002B18D02B6802265E
:101FB00013432B60FFF7F2F807002B688149334287
:101FC00005D1FFF7EBF8C01B6428F6D9AAE7F82083
:101FD0000B6822698343D20013430B600FE02B6828
:101FE000022693432B60FFF7D9F807002B68334292
:101FF00005D0FFF7D3F8C01B6428F7D992E7236810
:102000001B0703D423685B0752D524E0236A01220F
:102010006C4D002B0FD06B6A022613436B62FFF7E7
:10202000BDF807006B6A3342ECD1FFF7B7F8C01B6D
:102030006428F7D976E76B6A022693436B62FFF751
:10204000ADF807006B6A3342DCD0FFF7A7F8C01B7E
:102050006428F7D966E7802280275A4D5205EB693C
:102060005B4E1343EB6133687F003B433360FFF704
:1020700095F8019033683B421ED005222B6A022658
:1020800093432B62FFF78AF807002B6A4D493342CE
:1020900019D105200B6AA268834313430B62012AFE
:1020A0001FD1FFF77BF8022607002B6A334211D0BD
:1020B0002368DB0623D464E0FFF770F8019BC01AA5
:1020C0006428D7D92EE7FFF769F8404BC01B984228
:1020D000DBD927E7FFF762F83C4BC01B9842E4D9F5
:1020E00020E7FFF75BF8022607002B6A3342DFD0B8
:1020F000FFF754F8354BC01B9842F6D912E76269D6
:10210000304D0423012A1BD1696B02260B436B63FC
:102110006B6B1A436A63FFF741F807006B6B294941
:10212000334205D1FFF73AF8C01B6428F6D9F9E627
:10213000F8204B6BA2698343D20013434B6320E02A
:1021400005320AD1F8216A6B9A436A636B6BA26904
:102150008B43D20013436B6313E06A6B0226134375
:1021600001226B636B6B93436B63FFF717F80700F8
:102170006B6B334205D0FFF711F8C01B6428F7D909
:10218000D0E6626A002A01D1002057E00C230D4DF1
:10219000012069680B40082B50D00E4B022A3CD11D
:1021A0002A68802613402B60FEF7F8FF0700B6046C
:1021B0002A68044B32420FD0FEF7F0FFC01B6428A0
:1021C000F6D9AFE60010024002100240881300006A
:1021D00000700040FFFFFFFE0F21DA6A8A43E16AC8
:1021E0000A43DA62A16A206B5A68084314498024C2
:1021F0000A40802102435A601A6849040A431A605F
:10220000FEF7CCFF0600A4042B682342BCD1FEF7E6
:10221000C5FF801B6428F7D984E62A688024134010
:102220002B60FEF7BBFF0600A4042B682342ABD053
:10223000FEF7B4FF801B6428F7D973E6FEBDC046E5
:10224000FFFFC2FF0123F7B5624A0E0011680400C8
:1022500019401700B1425FD21168994331431160B0
:10226000126813409E4201D00120B1E0026893073A
:1022700006D5F02058494B688343A06803434B6060
:10228000D3070BD423685B0700D49DE05249534B1E
:102290004A681340E26813434B6095E04E4D636813
:1022A0002A68012B02D1920307D4DDE7022B02D169
:1022B000920102D4D8E79207D6D503216A680C2789
:1022C0008A4313436B60FEF769FF63680600012BC6
:1022D0000BD16B683B40042BD4D0FEF75FFF404B23
:1022E000801B9842F5D9032072E0022B10D16B6855
:1022F0003B40082BC6D0FEF751FF394B801B98425C
:10230000F5D9F0E7FEF74AFF354B801B9842EAD833
:102310006B683B42F6D1B5E70268930706D5F0201B
:102320002D494B688343A06803434B60D30709D40E
:1023300001223B68934333433B603B681A4096421B
:1023400092D19FE7244D63682A68012B02D1920342
:1023500007D489E7022B02D1920102D484E79207C5
:1023600082D503216A688A4313436B60FEF716FF28
:1023700063680190012B0CD10C226B681340042B75
:10238000D6D0FEF70BFF019BC01A154B9842F3D92C
:10239000A9E7022B13D10C226B681340082BC7D07E
:1023A000FEF7FCFE019BC01A0D4B9842F3D99AE749
:1023B000FEF7F4FE019BC01A094B984293D80C22F9
:1023C0006B681342F4D1B3E70320FEF7BDFE002093
:1023D000FEBDC0460020024000100240FFF8FFFF93
:1023E000881300000C2370B50C4D6A681340082B4D
:1023F00011D10B480733910C1940445CE96A0B403A
:10240000C318197CD30303D50648FDF793FE00E0FB
:102410000548604300E0034870BDC046001002401C
:10242000B02E000800127A0000093D000D488546D4
:10243000002103E00C4B5B58435004310B480C4B1C
:1024400042189A42F6D30B4A02E00023136004328A
:10245000094B9A42F9D300F099F8FEF795FDFFF782
:1024600061FBFEE7FF1F00209C2F000800000020FA
:102470007004002070040020A0060020FEE7000089
:1024800070B58901002814DA0F23C0B20340083B5D
:10249000114A9B0803249B009B18FF222040A04068
:1024A00014000A4084408240DD69A5432A43DA6172
:1024B00011E08208094B03259200D218FF2328401F
:1024C000A8401D00C02485400B408340A40016593D
:1024D000AE433343135170BD00ED00E000E100E076
:1024E0001F2318401E3B8340014A13607047C046BB
:1024F00000E100E0094A431E012093420DD8C020AC
:10250000074A084953600B6A00061B021B0A034373
:102510000B6200200723906013607047FFFFFF00ED
:1025200010E000E000ED00E00221074A10B5D36999
:1025300010200B43D36101310022FFF7A1FF1020CF
:10254000FFF7CEFF10BDC046001002407FB58021CE
:102550000C4B89029A690C480A4380219A615A6996
:10256000C9020A435A61022301220293039205938E
:10257000D21801A9FE330492019300F00FFB07B0BB
:1025800000BDC04600100240000400480121114B6C
:102590001A680A431A6058680F4A02405A6018685D
:1025A0000E4A02401A6018680D4A02401A605868C4
:1025B0000C4A02400F205A60DA6A8243DA62186BD2
:1025C000094A02401A635A6B8A435A6300229A608E
:1025D0007047C046001002400CB8FF08FFFFF6FE2F
:1025E000FFFFFBFFFFFFC0FF2CFEFFFF7047FEE772
:1025F0007047704710B5FEF7C9FD10BD10B5024811
:1026000000F0D8F810BDC046400600207047704763
:10261000012270B57324036A93430362036A42681C
:102620008569A5430C6825430224A3438C68234392
:10263000144CA04208D0144EB04205D0134EB04204
:1026400002D0134EB04216D10826B343CE683343AE
:102650000426B343A04208D00B4CA04205D00B4C3B
:10266000A04202D00A4CA04205D10A4C8E692240F9
:102670004C693443224342604A6885614263036285
:1026800070BDC046002C01400040014000440140A4
:1026900000480140FFFCFFFF026A194B30B51340B0
:1026A00003627323046A4268C5699D430B681D4336
:1026B000144B23408C6824022343134CA04207D1BF
:1026C000124C2340CC6824022343114C234005E0E4
:1026D000104CA04202D0104CA0420DD10F4C224011
:1026E0004C69240122438C692401224342604A68D8
:1026F000C561C263036230BD094CA042F6D1EDE76B
:10270000FFFEFFFFFFFDFFFF002C0140FFF7FFFF73
:10271000FFFBFFFF0040014000440140FFCFFFFFEF
:1027200000480140026A144B70B513400362066A08
:10273000124C0A684368C569254014022543104AB3
:102740008C683240240322430E4CA04208D00E4C29
:10275000A04205D00D4CA04202D00D4CA04204D1A5
:102760000C4C23404C69A401234343604B68C56172
:102770000364026270BDC046FFEFFFFFFF8CFFFFE6
:10278000FFDFFFFF002C01400040014000440140FA
:1027900000480140FFBFFFFF03680120D9680143E3
:1027A000D9601A6802431A6000207047704770476A
:1027B000704770470222036810B51969040011427E
:1027C00013D0D968114210D0053A1A619B690432BE
:1027D00002769B0702D0FFF7EAFF04E0FFF7E6FF6F
:1027E0002000FFF7E5FF0023237604222368196900
:1027F000114216D0D968114213D0093A1A61073232
:1028000022769A69C0239B0020001A4202D0FFF76B
:10281000CEFF04E0FFF7CAFF2000FFF7C9FF002347
:102820002376082223681969114214D0D96811420D
:1028300011D0113A1A61DB690D32227620009B0714
:1028400002D0FFF7B4FF04E0FFF7B0FF2000FFF76E
:10285000AFFF00232376102223681969114216D096
:10286000D968114213D0213A1A6119322276DA69F5
:10287000C0239B0020001A4202D0FFF798FF04E01B
:10288000FFF794FF2000FFF793FF00232376012238
:1028900023681969114207D0D968114204D0033A5C
:1028A0001A612000FFF796F8802223681969114207
:1028B00008D0D968114205D0023AFF3A1A612000C7
:1028C000FFF7A5FE402223681969114207D0D96895
:1028D000114204D0813A1A612000FFF76AFF2022DA
:1028E00023681969114207D0D968114204D0413ACE
:1028F0001A612000FFF78AFE10BD00001A4A10B5C9
:102900000368904202D0194CA04208D17024A3431E
:102910004C68234390420ED0144CA0420BD0144C70
:10292000A04208D0134CA04205D0134CA04202D0C4
:10293000124CA04203D1124C2340CC6823430360C5
:102940008B68C3620B688362904208D0094B98423F
:1029500005D0094B984202D0084B984201D10B692F
:1029600003630123436110BD002C014000040040BB
:102970000020004000400140004401400048014068
:10298000FFFCFFFF70B504000120002C10D02500D3
:1029900039352B78002B02D12000FFF7C5FD02232B
:1029A00020682B70211DFFF7A9FF012300202B7049
:1029B00070BD70B504000120002C10D02500393501
:1029C0002B78002B02D12000FFF7C0FD02232068E6
:1029D0002B70211DFFF792FF012300202B7070BD8B
:1029E0001022036A30B593430362036A174C4268AE
:1029F000856925400C68240225432024A3438C6864
:102A000024012343124CA04207D18024A343CC6865
:102A1000240123434024A34305E00E4CA04202D0EE
:102A20000D4CA0420DD10D4C22404C69A400224314
:102A30008C69A400224342604A6885618263036214
:102A400030BD074CA042F6D1EDE7C046FF8CFFFF3A
:102A5000002C01400040014000440140FFF3FFFF13
:102A600000480140F8B50600022338360D003178E1
:102A70000400180001295BD027000121393731708B
:102A80003B700C2A50D81000FDF74AFB074E4E4E03
:102A9000174E4E4E2B4E4E4E3B0029002068FFF73E
:102AA000B7FD082123689A690A439A619A69043933
:102AB0008A439A6199692A6910E029002068FFF722
:102AC0008FFF8021236809019A690A439A619969F5
:102AD000184A0A409A612A69996912020A439A615E
:102AE00022E029002068FFF7D7FD08212368DA6972
:102AF0000A43DA61DA6904398A43DA61D9692A69F1
:102B000010E029002068FFF70DFE802123680901ED
:102B1000DA690A43DA61D969064A0A40DA612A6940
:102B2000D96912020A43DA61012300203B70307038
:102B3000F8BDC046FFFBFFFF10B501248C408A4062
:102B4000036AA3430362036A1A43026210BD0000D2
:102B500010B5040001220068FFF7EEFF23680B4A5E
:102B6000934208D00A4A934205D00A4A934202D0BF
:102B7000094A934204D180215A6C09020A435A64DB
:102B800001211A6800200A431A6010BD002C014080
:102B9000004001400044014000480140F0B50B688E
:102BA00085B0039300230291039ADA4000D190E0AC
:102BB00001229A40039C1440019400D187E0029ABC
:102BC0001021526816008E43022E0ED107251D409B
:102BD000AD000139A940DC08A4000419276A8F431D
:102BE00002990969A9400F43276203245F00BC4092
:102BF0000321E4431140B9400568013E25400D43DF
:102C00000560012E10D802998568CE682540BE4027
:102C1000354301269E40012185604568B54316096C
:102C20000E409E4035434560C56802992C408D6832
:102C30008021BD4049052C43C4600A4247D0012190
:102C4000254D0327AC691F400C43AC610F24234979
:102C50009D08AD00BF006D18BC409021AE68C9054D
:102C6000A643002488420CD01D490134884208D074
:102C70001C490134884204D01B490334884200D1E6
:102C8000023CBC40019934430E00AC60174CCD436C
:102C900027683E43D10301D43E002E40266067687A
:102CA000019E3E43910301D43E002E406660A7681A
:102CB000019E3E43D10201D43E002E40A660E6684C
:102CC000019F3743920201D42E403700E760013361
:102CD0006AE705B0F0BDC0460010024000000140A8
:102CE0000004004800080048000C004800040140AF
:102CF0004369594041617047931E10B50C00222B67
:102D00000ED80A2A05D00021611800F075F82000BD
:102D100010BD0028F7DA2D2340420B700121F3E7A4
:102D2000002300200B70F3E710B5FFF7E5FF10BD9F
:102D300070B50500830717D102680F4BD318934372
:102D40000E4A140013420FD1043002680A4BD31804
:102D50009343234208D104300268074BD3189343AE
:102D60002342F1D000E001300378002BFBD100F0CA
:102D700007F8280070BDC046FFFEFEFE8080808000
:102D8000031C0A7801311A700133002AF9D1704707
:102D900010B5830727D00378002B26D0030003212A
:102DA00002E01A78002A1CD001330B42F9D11968CD
:102DB0000F4A104C8A188A4322420FD104331968F3
:102DC0000B4A8A188A43224208D104331968084AF8
:102DD0008A188A432242F1D000E001331A78002A8F
:102DE000FBD1181A10BD0300E1E70020FAE7C04646
:102DF000FFFEFEFE80808080F0B5574645464E4679
:102E0000E0B48AB090466A461D4B0D00060013CB15
:102E100013C213CB13C213CB13C21B78EA46137031
:102E20004346023B2F000024222B01D924E04C46CC
:102E3000631C300041469946FDF702FA53465B5C3D
:102E400030003B704146FDF775F90137061EEED1A3
:102E50004B46E8540023002C07D0EA5C295DE95476
:102E60002A550133013CA342F7DB28000AB01CBC01
:102E700090469946A246F0BD2C700020F6E7C04669
:102E8000682F0008F8B5C046F8BC08BC9E467047DD
:0C2E9000F8B5C046F8BC08BC9E46704770
:102E9C0000000000010203040102030406070809F4
:102EAC000004080202030405060708090A0B0C0DAE
:102EBC000E0F10100102030405060708090A0B0C7B
:102ECC000D0E0F1068030008C6020008C6020008A9
:102EDC00C40200085A0300085A03000850030008F3
:102EEC00C40200085A030008500300085A030008E3
:102EFC00C4020008600300086003000860030008B7
:102F0C00EA030008C00A00088009000880090008CC
:102F1C007E090008980A0008980A00088A0A000826
:102F2C007E090008980A00088A0A0008980A000816
:102F3C007E090008A00A0008A00A0008A00A0008E0
:102F4C00A00C000843000000480000200D0A002ED1
:102F5C000030004144433A09000000003031323364
:102F6C003435363738396162636465666768696A17
:102F7C006B6C6D6E6F707172737475767778797A1D
:042F8C000000000041
:082F9000D10F0008E900000860
:042F9800C10000086C
:102F9C000A202A2A2A2A204578656D706C6F2064D5
:102FAC006520414443202A2A2A2A0A0D20000000C9
:102FBC000000000000000000000000000000000005
:102FCC000000000000127A00000000000000000069
:102FDC000102030406070809000000003403002066
:102FEC009C030020040400200000000000000000EE
:102FFC0000000000000000000000000000000000C5
:10300C00000000000000000000000000502F00082D
:10301C0000000000000000000000000000000000A4
:10302C000000000000000000000000000000000094
:10303C000000000000000000000000000000000084
:10304C000000000000000000000000000000000074
:10305C000000000000000000000000000000000064
:10306C000000000000000000000000000000000054
:10307C000000000000000000000000000000000044
:10308C0001000000000000000E33CDAB34126DE6E1
:10309C00ECDE05000B00000000000000000000004A
:1030AC000000000000000000000000000000000014
:1030BC000000000000000000000000000000000004
:1030CC0000000000000000000000000000000000F4
:1030DC0000000000000000000000000000000000E4
:040000050800242D9E
:00000001FF
